{
  "_format": "hh-sol-artifact-1",
  "contractName": "TaskRegistry",
  "sourceName": "contracts/TaskRegistry.sol",
  "abi": [
    {
      "inputs": [],
      "name": "InvalidTask",
      "type": "error"
    },
    {
      "inputs": [],
      "name": "TaskAlreadyClosed",
      "type": "error"
    },
    {
      "inputs": [],
      "name": "TaskNotFound",
      "type": "error"
    },
    {
      "inputs": [],
      "name": "Unauthorized",
      "type": "error"
    },
    {
      "anonymous": false,
      "inputs": [
        {
          "indexed": true,
          "internalType": "bytes32",
          "name": "taskId",
          "type": "bytes32"
        }
      ],
      "name": "TaskClosed",
      "type": "event"
    },
    {
      "anonymous": false,
      "inputs": [
        {
          "indexed": true,
          "internalType": "bytes32",
          "name": "taskId",
          "type": "bytes32"
        },
        {
          "indexed": true,
          "internalType": "address",
          "name": "sponsor",
          "type": "address"
        },
        {
          "indexed": false,
          "internalType": "uint256",
          "name": "rewardAmount",
          "type": "uint256"
        },
        {
          "indexed": false,
          "internalType": "uint256",
          "name": "thresholdBps",
          "type": "uint256"
        },
        {
          "indexed": false,
          "internalType": "bytes32",
          "name": "metadataHash",
          "type": "bytes32"
        }
      ],
      "name": "TaskCreated",
      "type": "event"
    },
    {
      "inputs": [
        {
          "internalType": "bytes32",
          "name": "taskId",
          "type": "bytes32"
        }
      ],
      "name": "closeTask",
      "outputs": [],
      "stateMutability": "nonpayable",
      "type": "function"
    },
    {
      "inputs": [
        {
          "internalType": "bytes32",
          "name": "taskId",
          "type": "bytes32"
        },
        {
          "internalType": "uint256",
          "name": "rewardAmount",
          "type": "uint256"
        },
        {
          "internalType": "uint256",
          "name": "thresholdBps",
          "type": "uint256"
        },
        {
          "internalType": "bytes32",
          "name": "metadataHash",
          "type": "bytes32"
        }
      ],
      "name": "createTask",
      "outputs": [],
      "stateMutability": "nonpayable",
      "type": "function"
    },
    {
      "inputs": [
        {
          "internalType": "bytes32",
          "name": "taskId",
          "type": "bytes32"
        }
      ],
      "name": "getTask",
      "outputs": [
        {
          "internalType": "address",
          "name": "sponsor",
          "type": "address"
        },
        {
          "internalType": "uint256",
          "name": "rewardAmount",
          "type": "uint256"
        },
        {
          "internalType": "uint256",
          "name": "thresholdBps",
          "type": "uint256"
        },
        {
          "internalType": "bytes32",
          "name": "metadataHash",
          "type": "bytes32"
        },
        {
          "internalType": "bool",
          "name": "active",
          "type": "bool"
        }
      ],
      "stateMutability": "view",
      "type": "function"
    },
    {
      "inputs": [
        {
          "internalType": "bytes32",
          "name": "",
          "type": "bytes32"
        }
      ],
      "name": "tasks",
      "outputs": [
        {
          "internalType": "address",
          "name": "sponsor",
          "type": "address"
        },
        {
          "internalType": "uint256",
          "name": "rewardAmount",
          "type": "uint256"
        },
        {
          "internalType": "uint256",
          "name": "thresholdBps",
          "type": "uint256"
        },
        {
          "internalType": "bytes32",
          "name": "metadataHash",
          "type": "bytes32"
        },
        {
          "internalType": "bool",
          "name": "active",
          "type": "bool"
        }
      ],
      "stateMutability": "view",
      "type": "function"
    }
  ],
  "bytecode": "0x608060405234801561001057600080fd5b506103e7806100206000396000f3fe608060405234801561001057600080fd5b506004361061004c5760003560e01c806315a29035146100515780638169f63e1461009c578063e579f500146100b1578063e853202f146100fb575b600080fd5b61006461005f366004610366565b61010e565b604080516001600160a01b03909616865260208601949094529284019190915260608301521515608082015260a00160405180910390f35b6100af6100aa36600461037f565b610181565b005b6100646100bf366004610366565b600060208190529081526040902080546001820154600283015460038401546004909401546001600160a01b0390931693919290919060ff1685565b6100af610109366004610366565b6102a7565b6000818152602081905260408120805482918291829182916001600160a01b031661014c5760405163c325ae3360e01b815260040160405180910390fd5b80546001820154600283015460038401546004909401546001600160a01b039093169a919950975091955060ff169350915050565b82158061018f575061271082115b156101ad57604051630531bbb160e01b815260040160405180910390fd5b6000848152602081905260409020546001600160a01b0316156101e357604051630531bbb160e01b815260040160405180910390fd5b6040805160a081018252338082526020808301878152838501878152606080860188815260016080880181815260008e81528088528a9020985189546001600160a01b0319166001600160a01b03909116178955945190880155915160028701559051600386015590516004909401805460ff19169415159490941790935583518781529081018690529283018490529186917fe3d56d752bd7031a054feb934629e5987081c929e77c548007cb5281f575d364910160405180910390a350505050565b600081815260208190526040902080546001600160a01b03166102dd5760405163c325ae3360e01b815260040160405180910390fd5b80546001600160a01b03163314610306576040516282b42960e81b815260040160405180910390fd5b600481015460ff1661032b57604051634303967760e11b815260040160405180910390fd5b60048101805460ff1916905560405182907f4e35da92e4f3f6a1171ca803360005e851de84a0aac5c0a350288097cd35355790600090a25050565b60006020828403121561037857600080fd5b5035919050565b6000806000806080858703121561039557600080fd5b505082359460208401359450604084013593606001359250905056fea26469706673582212204571835241fdcb304d12e17b64b6173eb23a4f039ecb6da5877da7a971adab0164736f6c63430008140033",
  "linkReferences": {},
  "deployedLinkReferences": {}
}