{
  "_format": "hh-sol-artifact-1",
  "contractName": "Settlement",
  "sourceName": "contracts/Settlement.sol",
  "abi": [
    {
      "inputs": [
        {
          "internalType": "address",
          "name": "_taskRegistry",
          "type": "address"
        },
        {
          "internalType": "address",
          "name": "_escrowVault",
          "type": "address"
        },
        {
          "internalType": "address",
          "name": "_submissionRegistry",
          "type": "address"
        }
      ],
      "stateMutability": "nonpayable",
      "type": "constructor"
    },
    {
      "inputs": [],
      "name": "AlreadySettled",
      "type": "error"
    },
    {
      "inputs": [],
      "name": "SubmissionNotVerified",
      "type": "error"
    },
    {
      "inputs": [],
      "name": "TaskNotFound",
      "type": "error"
    },
    {
      "inputs": [],
      "name": "Unauthorized",
      "type": "error"
    },
    {
      "anonymous": false,
      "inputs": [
        {
          "indexed": true,
          "internalType": "bytes32",
          "name": "taskId",
          "type": "bytes32"
        },
        {
          "indexed": true,
          "internalType": "bytes32",
          "name": "submissionId",
          "type": "bytes32"
        },
        {
          "indexed": false,
          "internalType": "address",
          "name": "participant",
          "type": "address"
        },
        {
          "indexed": false,
          "internalType": "uint256",
          "name": "amount",
          "type": "uint256"
        }
      ],
      "name": "Settled",
      "type": "event"
    },
    {
      "inputs": [],
      "name": "escrowVault",
      "outputs": [
        {
          "internalType": "contract EscrowVault",
          "name": "",
          "type": "address"
        }
      ],
      "stateMutability": "view",
      "type": "function"
    },
    {
      "inputs": [
        {
          "internalType": "bytes32",
          "name": "submissionId",
          "type": "bytes32"
        },
        {
          "internalType": "uint256",
          "name": "score",
          "type": "uint256"
        }
      ],
      "name": "markRejectedOnly",
      "outputs": [],
      "stateMutability": "nonpayable",
      "type": "function"
    },
    {
      "inputs": [
        {
          "internalType": "bytes32",
          "name": "submissionId",
          "type": "bytes32"
        },
        {
          "internalType": "uint256",
          "name": "score",
          "type": "uint256"
        }
      ],
      "name": "markVerifiedOnly",
      "outputs": [],
      "stateMutability": "nonpayable",
      "type": "function"
    },
    {
      "inputs": [
        {
          "internalType": "bytes32",
          "name": "submissionId",
          "type": "bytes32"
        },
        {
          "internalType": "bytes32",
          "name": "taskId",
          "type": "bytes32"
        },
        {
          "internalType": "address",
          "name": "participant",
          "type": "address"
        },
        {
          "internalType": "bytes32",
          "name": "evidenceHash",
          "type": "bytes32"
        }
      ],
      "name": "recordSubmission",
      "outputs": [],
      "stateMutability": "nonpayable",
      "type": "function"
    },
    {
      "inputs": [
        {
          "internalType": "bytes32",
          "name": "taskId",
          "type": "bytes32"
        },
        {
          "internalType": "bytes32",
          "name": "submissionId",
          "type": "bytes32"
        }
      ],
      "name": "releaseReward",
      "outputs": [],
      "stateMutability": "nonpayable",
      "type": "function"
    },
    {
      "inputs": [
        {
          "internalType": "bytes32",
          "name": "taskId",
          "type": "bytes32"
        },
        {
          "internalType": "bytes32",
          "name": "submissionId",
          "type": "bytes32"
        },
        {
          "internalType": "uint256",
          "name": "score",
          "type": "uint256"
        },
        {
          "internalType": "uint256",
          "name": "thresholdBps",
          "type": "uint256"
        }
      ],
      "name": "resolveAndSettle",
      "outputs": [],
      "stateMutability": "nonpayable",
      "type": "function"
    },
    {
      "inputs": [
        {
          "internalType": "bytes32",
          "name": "",
          "type": "bytes32"
        },
        {
          "internalType": "bytes32",
          "name": "",
          "type": "bytes32"
        }
      ],
      "name": "settled",
      "outputs": [
        {
          "internalType": "bool",
          "name": "",
          "type": "bool"
        }
      ],
      "stateMutability": "view",
      "type": "function"
    },
    {
      "inputs": [],
      "name": "submissionRegistry",
      "outputs": [
        {
          "internalType": "contract SubmissionRegistry",
          "name": "",
          "type": "address"
        }
      ],
      "stateMutability": "view",
      "type": "function"
    },
    {
      "inputs": [],
      "name": "taskRegistry",
      "outputs": [
        {
          "internalType": "contract TaskRegistry",
          "name": "",
          "type": "address"
        }
      ],
      "stateMutability": "view",
      "type": "function"
    }
  ],
  "bytecode": "0x608060405234801561001057600080fd5b50604051610c0f380380610c0f83398101604081905261002f9161013d565b600080546001600160a01b038581166001600160a01b0319928316179092556001805485841690831681179091556002805493851693909216929092179055604051638f4e6f3760e01b8152306004820152638f4e6f3790602401600060405180830381600087803b1580156100a457600080fd5b505af11580156100b8573d6000803e3d6000fd5b5050600254604051638f4e6f3760e01b81523060048201526001600160a01b039091169250638f4e6f379150602401600060405180830381600087803b15801561010157600080fd5b505af1158015610115573d6000803e3d6000fd5b50505050505050610180565b80516001600160a01b038116811461013857600080fd5b919050565b60008060006060848603121561015257600080fd5b61015b84610121565b925061016960208501610121565b915061017760408501610121565b90509250925092565b610a808061018f6000396000f3fe608060405234801561001057600080fd5b50600436106100935760003560e01c80639ce4e508116100665780639ce4e508146101035780639e498f1614610116578063a556933e14610129578063af67e9ad1461013c578063b94f53511461014f57600080fd5b80633e10ef381461009857806383b6db64146100c85780638a2ae60b146100dd578063967155c1146100f0575b600080fd5b6002546100ab906001600160a01b031681565b6040516001600160a01b0390911681526020015b60405180910390f35b6100db6100d63660046108f5565b61018d565b005b6001546100ab906001600160a01b031681565b6100db6100fe366004610934565b610207565b6100db610111366004610966565b610597565b6000546100ab906001600160a01b031681565b6100db610137366004610966565b610601565b6100db61014a366004610966565b610639565b61017d61015d366004610966565b600360209081526000928352604080842090915290825290205460ff1681565b60405190151581526020016100bf565b6002546040516320edb6d960e21b815260048101869052602481018590526001600160a01b03848116604483015260648201849052909116906383b6db6490608401600060405180830381600087803b1580156101e957600080fd5b505af11580156101fd573d6000803e3d6000fd5b5050505050505050565b600084815260036020908152604080832086845290915290205460ff16156102415760405162560ff960e81b815260040160405180910390fd5b600080546040516315a2903560e01b8152600481018790528291829182916001600160a01b0316906315a290359060240160a060405180830381865afa15801561028f573d6000803e3d6000fd5b505050506040513d601f19601f820116820180604052508101906102b3919061099d565b9397509195509350909150506001600160a01b0384166102e65760405163c325ae3360e01b815260040160405180910390fd5b806103045760405163c325ae3360e01b815260040160405180910390fd5b8186106105285760025460405163c3b3cf1d60e01b815260048101899052602481018890526001600160a01b039091169063c3b3cf1d90604401600060405180830381600087803b15801561035857600080fd5b505af115801561036c573d6000803e3d6000fd5b5050600254604051631d5b74e960e21b8152600481018b9052600093508392506001600160a01b039091169063756dd3a490602401608060405180830381865afa1580156103be573d6000803e3d6000fd5b505050506040513d601f19601f820116820180604052508101906103e291906109f1565b935050509150806105215760025460405163defb274960e01b8152600481018b90526001600160a01b039091169063defb274990602401600060405180830381600087803b15801561043357600080fd5b505af1158015610447573d6000803e3d6000fd5b505060015460405163082edd4160e21b8152600481018e90526001600160a01b038681166024830152604482018a905290911692506320bb75049150606401600060405180830381600087803b1580156104a057600080fd5b505af11580156104b4573d6000803e3d6000fd5b50505060008b81526003602090815260408083208d8452825291829020805460ff1916600117905581516001600160a01b03861681529081018890528b92508c917fe7ddf34febf549e1b39462318c39380b469024c645400bfeab0268b9247e655e910160405180910390a35b50506101fd565b60025460405163bf3c6be160e01b815260048101899052602481018890526001600160a01b039091169063bf3c6be190604401600060405180830381600087803b15801561057557600080fd5b505af1158015610589573d6000803e3d6000fd5b505050505050505050505050565b60025460405163bf3c6be160e01b815260048101849052602481018390526001600160a01b039091169063bf3c6be1906044015b600060405180830381600087803b1580156105e557600080fd5b505af11580156105f9573d6000803e3d6000fd5b505050505050565b60025460405163c3b3cf1d60e01b815260048101849052602481018390526001600160a01b039091169063c3b3cf1d906044016105cb565b600082815260036020908152604080832084845290915290205460ff16156106735760405162560ff960e81b815260040160405180910390fd5b600254604051631d5b74e960e21b815260048101839052600091829182916001600160a01b03169063756dd3a490602401608060405180830381865afa1580156106c1573d6000803e3d6000fd5b505050506040513d601f19601f820116820180604052508101906106e591906109f1565b935050925092508160ff1660011461071057604051630dfe354360e41b815260040160405180910390fd5b801561072e5760405162560ff960e81b815260040160405180910390fd5b600080546040516315a2903560e01b8152600481018890526001600160a01b03909116906315a290359060240160a060405180830381865afa158015610778573d6000803e3d6000fd5b505050506040513d601f19601f8201168201806040525081019061079c919061099d565b505060025460405163defb274960e01b8152600481018a90529294506001600160a01b0316925063defb2749916024019050600060405180830381600087803b1580156107e857600080fd5b505af11580156107fc573d6000803e3d6000fd5b505060015460405163082edd4160e21b8152600481018a90526001600160a01b0388811660248301526044820186905290911692506320bb75049150606401600060405180830381600087803b15801561085557600080fd5b505af1158015610869573d6000803e3d6000fd5b5050506000878152600360209081526040808320898452825291829020805460ff1916600117905581516001600160a01b038816815290810184905287925088917fe7ddf34febf549e1b39462318c39380b469024c645400bfeab0268b9247e655e910160405180910390a3505050505050565b6001600160a01b03811681146108f257600080fd5b50565b6000806000806080858703121561090b57600080fd5b84359350602085013592506040850135610924816108dd565b9396929550929360600135925050565b6000806000806080858703121561094a57600080fd5b5050823594602084013594506040840135936060013592509050565b6000806040838503121561097957600080fd5b50508035926020909101359150565b8051801515811461099857600080fd5b919050565b600080600080600060a086880312156109b557600080fd5b85516109c0816108dd565b809550506020860151935060408601519250606086015191506109e560808701610988565b90509295509295909350565b60008060008060808587031215610a0757600080fd5b8451610a12816108dd565b602086015190945060ff81168114610a2957600080fd5b60408601519093509150610a3f60608601610988565b90509295919450925056fea2646970667358221220b01ec1fc7a80d956161d970051cef5662ffc1332e5aae47d0b51d2c50170833164736f6c63430008140033",
  "linkReferences": {},
  "deployedLinkReferences": {}
}