{"contracts/EscrowVault.sol":{"EscrowVault":{"abi":[{"inputs":[],"stateMutability":"nonpayable","type":"constructor"},{"inputs":[],"name":"InsufficientBalance","type":"error"},{"inputs":[],"name":"TransferFailed","type":"error"},{"inputs":[],"name":"Unauthorized","type":"error"},{"anonymous":false,"inputs":[{"indexed":true,"internalType":"bytes32","name":"taskId","type":"bytes32"},{"indexed":true,"internalType":"address","name":"sponsor","type":"address"},{"indexed":false,"internalType":"uint256","name":"amount","type":"uint256"}],"name":"FundsReclaimed","type":"event"},{"anonymous":false,"inputs":[{"indexed":true,"internalType":"bytes32","name":"taskId","type":"bytes32"},{"indexed":true,"internalType":"address","name":"sponsor","type":"address"},{"indexed":false,"internalType":"uint256","name":"amount","type":"uint256"}],"name":"RewardDeposited","type":"event"},{"anonymous":false,"inputs":[{"indexed":true,"internalType":"bytes32","name":"taskId","type":"bytes32"},{"indexed":true,"internalType":"address","name":"participant","type":"address"},{"indexed":false,"internalType":"uint256","name":"amount","type":"uint256"}],"name":"RewardReleased","type":"event"},{"inputs":[{"internalType":"bytes32","name":"taskId","type":"bytes32"}],"name":"depositReward","outputs":[],"stateMutability":"payable","type":"function"},{"inputs":[{"internalType":"bytes32","name":"taskId","type":"bytes32"},{"internalType":"address","name":"sponsor","type":"address"}],"name":"reclaimUnusedFunds","outputs":[],"stateMutability":"nonpayable","type":"function"},{"inputs":[{"internalType":"bytes32","name":"taskId","type":"bytes32"},{"internalType":"address","name":"participant","type":"address"},{"internalType":"uint256","name":"amount","type":"uint256"}],"name":"releaseReward","outputs":[],"stateMutability":"nonpayable","type":"function"},{"inputs":[{"internalType":"address","name":"_settlement","type":"address"}],"name":"setSettlement","outputs":[],"stateMutability":"nonpayable","type":"function"},{"inputs":[],"name":"settlementContract","outputs":[{"internalType":"address","name":"","type":"address"}],"stateMutability":"view","type":"function"},{"inputs":[{"internalType":"bytes32","name":"","type":"bytes32"}],"name":"taskBalances","outputs":[{"internalType":"uint256","name":"","type":"uint256"}],"stateMutability":"view","type":"function"}],"evm":{"bytecode":{"linkReferences":{},"object":"608060405234801561001057600080fd5b50600080546001600160a01b031916331790556105a6806100326000396000f3fe6080604052600436106100555760003560e01c806320bb75041461005a5780636d0a2ede1461007c5780638babaf181461008f5780638f4e6f37146100af578063de76d02e146100cf578063ea42418b1461010f575b600080fd5b34801561006657600080fd5b5061007a610075366004610492565b610147565b005b61007a61008a3660046104c7565b61027f565b34801561009b57600080fd5b5061007a6100aa3660046104e0565b6102fd565b3480156100bb57600080fd5b5061007a6100ca36600461050c565b610412565b3480156100db57600080fd5b506100fc6100ea3660046104c7565b60016020526000908152604090205481565b6040519081526020015b60405180910390f35b34801561011b57600080fd5b5060005461012f906001600160a01b031681565b6040516001600160a01b039091168152602001610106565b6000546001600160a01b03163314610171576040516282b42960e81b815260040160405180910390fd5b6000838152600160205260409020548111156101a057604051631e9acf1760e31b815260040160405180910390fd5b600083815260016020526040812080548392906101be908490610544565b90915550506040516000906001600160a01b0384169083908381818185875af1925050503d806000811461020e576040519150601f19603f3d011682016040523d82523d6000602084013e610213565b606091505b5050905080610235576040516312171d8360e31b815260040160405180910390fd5b826001600160a01b0316847ff492c66c3740174fe441446adba82ccdc18cd2dc703b91ea62cbb9e35d4960468460405161027191815260200190565b60405180910390a350505050565b346000036102a057604051631e9acf1760e31b815260040160405180910390fd5b600081815260016020526040812080543492906102be90849061055d565b9091555050604051348152339082907f8085b250618a39ff334c7d3f98264278fa62e0c55665bff318912c0b0f69090e9060200160405180910390a350565b6000546001600160a01b03163314610327576040516282b42960e81b815260040160405180910390fd5b6000828152600160205260408120549081900361035757604051631e9acf1760e31b815260040160405180910390fd5b600083815260016020526040808220829055516001600160a01b0384169083908381818185875af1925050503d80600081146103af576040519150601f19603f3d011682016040523d82523d6000602084013e6103b4565b606091505b50509050806103d6576040516312171d8360e31b815260040160405180910390fd5b826001600160a01b0316847f6e0ca32fe4e7948887c8c246a123e5aa6349df1a9f4fad178f7a0d43d5d1fb848460405161027191815260200190565b6000546001600160a01b03161580159061043757506000546001600160a01b03163314155b15610454576040516282b42960e81b815260040160405180910390fd5b600080546001600160a01b0319166001600160a01b0392909216919091179055565b80356001600160a01b038116811461048d57600080fd5b919050565b6000806000606084860312156104a757600080fd5b833592506104b760208501610476565b9150604084013590509250925092565b6000602082840312156104d957600080fd5b5035919050565b600080604083850312156104f357600080fd5b8235915061050360208401610476565b90509250929050565b60006020828403121561051e57600080fd5b61052782610476565b9392505050565b634e487b7160e01b600052601160045260246000fd5b818103818111156105575761055761052e565b92915050565b808201808211156105575761055761052e56fea26469706673582212201fee1db51ec62e3c2dcacc79cff8e895b1d6c96a82d99b5023a629ab518e3b5464736f6c63430008140033","opcodes":"PUSH1 0x80 PUSH1 0x40 MSTORE CALLVALUE DUP1 ISZERO PUSH2 0x10 JUMPI PUSH1 0x0 DUP1 REVERT JUMPDEST POP PUSH1 0x0 DUP1 SLOAD PUSH1 0x1 PUSH1 0x1 PUSH1 0xA0 SHL SUB NOT AND CALLER OR SWAP1 SSTORE PUSH2 0x5A6 DUP1 PUSH2 0x32 PUSH1 0x0 CODECOPY PUSH1 0x0 RETURN INVALID PUSH1 0x80 PUSH1 0x40 MSTORE PUSH1 0x4 CALLDATASIZE LT PUSH2 0x55 JUMPI PUSH1 0x0 CALLDATALOAD PUSH1 0xE0 SHR DUP1 PUSH4 0x20BB7504 EQ PUSH2 0x5A JUMPI DUP1 PUSH4 0x6D0A2EDE EQ PUSH2 0x7C JUMPI DUP1 PUSH4 0x8BABAF18 EQ PUSH2 0x8F JUMPI DUP1 PUSH4 0x8F4E6F37 EQ PUSH2 0xAF JUMPI DUP1 PUSH4 0xDE76D02E EQ PUSH2 0xCF JUMPI DUP1 PUSH4 0xEA42418B EQ PUSH2 0x10F JUMPI JUMPDEST PUSH1 0x0 DUP1 REVERT JUMPDEST CALLVALUE DUP1 ISZERO PUSH2 0x66 JUMPI PUSH1 0x0 DUP1 REVERT JUMPDEST POP PUSH2 0x7A PUSH2 0x75 CALLDATASIZE PUSH1 0x4 PUSH2 0x492 JUMP JUMPDEST PUSH2 0x147 JUMP JUMPDEST STOP JUMPDEST PUSH2 0x7A PUSH2 0x8A CALLDATASIZE PUSH1 0x4 PUSH2 0x4C7 JUMP JUMPDEST PUSH2 0x27F JUMP JUMPDEST CALLVALUE DUP1 ISZERO PUSH2 0x9B JUMPI PUSH1 0x0 DUP1 REVERT JUMPDEST POP PUSH2 0x7A PUSH2 0xAA CALLDATASIZE PUSH1 0x4 PUSH2 0x4E0 JUMP JUMPDEST PUSH2 0x2FD JUMP JUMPDEST CALLVALUE DUP1 ISZERO PUSH2 0xBB JUMPI PUSH1 0x0 DUP1 REVERT JUMPDEST POP PUSH2 0x7A PUSH2 0xCA CALLDATASIZE PUSH1 0x4 PUSH2 0x50C JUMP JUMPDEST PUSH2 0x412 JUMP JUMPDEST CALLVALUE DUP1 ISZERO PUSH2 0xDB JUMPI PUSH1 0x0 DUP1 REVERT JUMPDEST POP PUSH2 0xFC PUSH2 0xEA CALLDATASIZE PUSH1 0x4 PUSH2 0x4C7 JUMP JUMPDEST PUSH1 0x1 PUSH1 0x20 MSTORE PUSH1 0x0 SWAP1 DUP2 MSTORE PUSH1 0x40 SWAP1 KECCAK256 SLOAD DUP2 JUMP JUMPDEST PUSH1 0x40 MLOAD SWAP1 DUP2 MSTORE PUSH1 0x20 ADD JUMPDEST PUSH1 0x40 MLOAD DUP1 SWAP2 SUB SWAP1 RETURN JUMPDEST CALLVALUE DUP1 ISZERO PUSH2 0x11B JUMPI PUSH1 0x0 DUP1 REVERT JUMPDEST POP PUSH1 0x0 SLOAD PUSH2 0x12F SWAP1 PUSH1 0x1 PUSH1 0x1 PUSH1 0xA0 SHL SUB AND DUP2 JUMP JUMPDEST PUSH1 0x40 MLOAD PUSH1 0x1 PUSH1 0x1 PUSH1 0xA0 SHL SUB SWAP1 SWAP2 AND DUP2 MSTORE PUSH1 0x20 ADD PUSH2 0x106 JUMP JUMPDEST PUSH1 0x0 SLOAD PUSH1 0x1 PUSH1 0x1 PUSH1 0xA0 SHL SUB AND CALLER EQ PUSH2 0x171 JUMPI PUSH1 0x40 MLOAD PUSH3 0x82B429 PUSH1 0xE8 SHL DUP2 MSTORE PUSH1 0x4 ADD PUSH1 0x40 MLOAD DUP1 SWAP2 SUB SWAP1 REVERT JUMPDEST PUSH1 0x0 DUP4 DUP2 MSTORE PUSH1 0x1 PUSH1 0x20 MSTORE PUSH1 0x40 SWAP1 KECCAK256 SLOAD DUP2 GT ISZERO PUSH2 0x1A0 JUMPI PUSH1 0x40 MLOAD PUSH4 0x1E9ACF17 PUSH1 0xE3 SHL DUP2 MSTORE PUSH1 0x4 ADD PUSH1 0x40 MLOAD DUP1 SWAP2 SUB SWAP1 REVERT JUMPDEST PUSH1 0x0 DUP4 DUP2 MSTORE PUSH1 0x1 PUSH1 0x20 MSTORE PUSH1 0x40 DUP2 KECCAK256 DUP1 SLOAD DUP4 SWAP3 SWAP1 PUSH2 0x1BE SWAP1 DUP5 SWAP1 PUSH2 0x544 JUMP JUMPDEST SWAP1 SWAP2 SSTORE POP POP PUSH1 0x40 MLOAD PUSH1 0x0 SWAP1 PUSH1 0x1 PUSH1 0x1 PUSH1 0xA0 SHL SUB DUP5 AND SWAP1 DUP4 SWAP1 DUP4 DUP2 DUP2 DUP2 DUP6 DUP8 GAS CALL SWAP3 POP POP POP RETURNDATASIZE DUP1 PUSH1 0x0 DUP2 EQ PUSH2 0x20E JUMPI PUSH1 0x40 MLOAD SWAP2 POP PUSH1 0x1F NOT PUSH1 0x3F RETURNDATASIZE ADD AND DUP3 ADD PUSH1 0x40 MSTORE RETURNDATASIZE DUP3 MSTORE RETURNDATASIZE PUSH1 0x0 PUSH1 0x20 DUP5 ADD RETURNDATACOPY PUSH2 0x213 JUMP JUMPDEST PUSH1 0x60 SWAP2 POP JUMPDEST POP POP SWAP1 POP DUP1 PUSH2 0x235 JUMPI PUSH1 0x40 MLOAD PUSH4 0x12171D83 PUSH1 0xE3 SHL DUP2 MSTORE PUSH1 0x4 ADD PUSH1 0x40 MLOAD DUP1 SWAP2 SUB SWAP1 REVERT JUMPDEST DUP3 PUSH1 0x1 PUSH1 0x1 PUSH1 0xA0 SHL SUB AND DUP5 PUSH32 0xF492C66C3740174FE441446ADBA82CCDC18CD2DC703B91EA62CBB9E35D496046 DUP5 PUSH1 0x40 MLOAD PUSH2 0x271 SWAP2 DUP2 MSTORE PUSH1 0x20 ADD SWAP1 JUMP JUMPDEST PUSH1 0x40 MLOAD DUP1 SWAP2 SUB SWAP1 LOG3 POP POP POP POP JUMP JUMPDEST CALLVALUE PUSH1 0x0 SUB PUSH2 0x2A0 JUMPI PUSH1 0x40 MLOAD PUSH4 0x1E9ACF17 PUSH1 0xE3 SHL DUP2 MSTORE PUSH1 0x4 ADD PUSH1 0x40 MLOAD DUP1 SWAP2 SUB SWAP1 REVERT JUMPDEST PUSH1 0x0 DUP2 DUP2 MSTORE PUSH1 0x1 PUSH1 0x20 MSTORE PUSH1 0x40 DUP2 KECCAK256 DUP1 SLOAD CALLVALUE SWAP3 SWAP1 PUSH2 0x2BE SWAP1 DUP5 SWAP1 PUSH2 0x55D JUMP JUMPDEST SWAP1 SWAP2 SSTORE POP POP PUSH1 0x40 MLOAD CALLVALUE DUP2 MSTORE CALLER SWAP1 DUP3 SWAP1 PUSH32 0x8085B250618A39FF334C7D3F98264278FA62E0C55665BFF318912C0B0F69090E SWAP1 PUSH1 0x20 ADD PUSH1 0x40 MLOAD DUP1 SWAP2 SUB SWAP1 LOG3 POP JUMP JUMPDEST PUSH1 0x0 SLOAD PUSH1 0x1 PUSH1 0x1 PUSH1 0xA0 SHL SUB AND CALLER EQ PUSH2 0x327 JUMPI PUSH1 0x40 MLOAD PUSH3 0x82B429 PUSH1 0xE8 SHL DUP2 MSTORE PUSH1 0x4 ADD PUSH1 0x40 MLOAD DUP1 SWAP2 SUB SWAP1 REVERT JUMPDEST PUSH1 0x0 DUP3 DUP2 MSTORE PUSH1 0x1 PUSH1 0x20 MSTORE PUSH1 0x40 DUP2 KECCAK256 SLOAD SWAP1 DUP2 SWAP1 SUB PUSH2 0x357 JUMPI PUSH1 0x40 MLOAD PUSH4 0x1E9ACF17 PUSH1 0xE3 SHL DUP2 MSTORE PUSH1 0x4 ADD PUSH1 0x40 MLOAD DUP1 SWAP2 SUB SWAP1 REVERT JUMPDEST PUSH1 0x0 DUP4 DUP2 MSTORE PUSH1 0x1 PUSH1 0x20 MSTORE PUSH1 0x40 DUP1 DUP3 KECCAK256 DUP3 SWAP1 SSTORE MLOAD PUSH1 0x1 PUSH1 0x1 PUSH1 0xA0 SHL SUB DUP5 AND SWAP1 DUP4 SWAP1 DUP4 DUP2 DUP2 DUP2 DUP6 DUP8 GAS CALL SWAP3 POP POP POP RETURNDATASIZE DUP1 PUSH1 0x0 DUP2 EQ PUSH2 0x3AF JUMPI PUSH1 0x40 MLOAD SWAP2 POP PUSH1 0x1F NOT PUSH1 0x3F RETURNDATASIZE ADD AND DUP3 ADD PUSH1 0x40 MSTORE RETURNDATASIZE DUP3 MSTORE RETURNDATASIZE PUSH1 0x0 PUSH1 0x20 DUP5 ADD RETURNDATACOPY PUSH2 0x3B4 JUMP JUMPDEST PUSH1 0x60 SWAP2 POP JUMPDEST POP POP SWAP1 POP DUP1 PUSH2 0x3D6 JUMPI PUSH1 0x40 MLOAD PUSH4 0x12171D83 PUSH1 0xE3 SHL DUP2 MSTORE PUSH1 0x4 ADD PUSH1 0x40 MLOAD DUP1 SWAP2 SUB SWAP1 REVERT JUMPDEST DUP3 PUSH1 0x1 PUSH1 0x1 PUSH1 0xA0 SHL SUB AND DUP5 PUSH32 0x6E0CA32FE4E7948887C8C246A123E5AA6349DF1A9F4FAD178F7A0D43D5D1FB84 DUP5 PUSH1 0x40 MLOAD PUSH2 0x271 SWAP2 DUP2 MSTORE PUSH1 0x20 ADD SWAP1 JUMP JUMPDEST PUSH1 0x0 SLOAD PUSH1 0x1 PUSH1 0x1 PUSH1 0xA0 SHL SUB AND ISZERO DUP1 ISZERO SWAP1 PUSH2 0x437 JUMPI POP PUSH1 0x0 SLOAD PUSH1 0x1 PUSH1 0x1 PUSH1 0xA0 SHL SUB AND CALLER EQ ISZERO JUMPDEST ISZERO PUSH2 0x454 JUMPI PUSH1 0x40 MLOAD PUSH3 0x82B429 PUSH1 0xE8 SHL DUP2 MSTORE PUSH1 0x4 ADD PUSH1 0x40 MLOAD DUP1 SWAP2 SUB SWAP1 REVERT JUMPDEST PUSH1 0x0 DUP1 SLOAD PUSH1 0x1 PUSH1 0x1 PUSH1 0xA0 SHL SUB NOT AND PUSH1 0x1 PUSH1 0x1 PUSH1 0xA0 SHL SUB SWAP3 SWAP1 SWAP3 AND SWAP2 SWAP1 SWAP2 OR SWAP1 SSTORE JUMP JUMPDEST DUP1 CALLDATALOAD PUSH1 0x1 PUSH1 0x1 PUSH1 0xA0 SHL SUB DUP2 AND DUP2 EQ PUSH2 0x48D JUMPI PUSH1 0x0 DUP1 REVERT JUMPDEST SWAP2 SWAP1 POP JUMP JUMPDEST PUSH1 0x0 DUP1 PUSH1 0x0 PUSH1 0x60 DUP5 DUP7 SUB SLT ISZERO PUSH2 0x4A7 JUMPI PUSH1 0x0 DUP1 REVERT JUMPDEST DUP4 CALLDATALOAD SWAP3 POP PUSH2 0x4B7 PUSH1 0x20 DUP6 ADD PUSH2 0x476 JUMP JUMPDEST SWAP2 POP PUSH1 0x40 DUP5 ADD CALLDATALOAD SWAP1 POP SWAP3 POP SWAP3 POP SWAP3 JUMP JUMPDEST PUSH1 0x0 PUSH1 0x20 DUP3 DUP5 SUB SLT ISZERO PUSH2 0x4D9 JUMPI PUSH1 0x0 DUP1 REVERT JUMPDEST POP CALLDATALOAD SWAP2 SWAP1 POP JUMP JUMPDEST PUSH1 0x0 DUP1 PUSH1 0x40 DUP4 DUP6 SUB SLT ISZERO PUSH2 0x4F3 JUMPI PUSH1 0x0 DUP1 REVERT JUMPDEST DUP3 CALLDATALOAD SWAP2 POP PUSH2 0x503 PUSH1 0x20 DUP5 ADD PUSH2 0x476 JUMP JUMPDEST SWAP1 POP SWAP3 POP SWAP3 SWAP1 POP JUMP JUMPDEST PUSH1 0x0 PUSH1 0x20 DUP3 DUP5 SUB SLT ISZERO PUSH2 0x51E JUMPI PUSH1 0x0 DUP1 REVERT JUMPDEST PUSH2 0x527 DUP3 PUSH2 0x476 JUMP JUMPDEST SWAP4 SWAP3 POP POP POP JUMP JUMPDEST PUSH4 0x4E487B71 PUSH1 0xE0 SHL PUSH1 0x0 MSTORE PUSH1 0x11 PUSH1 0x4 MSTORE PUSH1 0x24 PUSH1 0x0 REVERT JUMPDEST DUP2 DUP2 SUB DUP2 DUP2 GT ISZERO PUSH2 0x557 JUMPI PUSH2 0x557 PUSH2 0x52E JUMP JUMPDEST SWAP3 SWAP2 POP POP JUMP JUMPDEST DUP1 DUP3 ADD DUP1 DUP3 GT ISZERO PUSH2 0x557 JUMPI PUSH2 0x557 PUSH2 0x52E JUMP INVALID LOG2 PUSH5 0x6970667358 0x22 SLT KECCAK256 0x1F 0xEE SAR 0xB5 0x1E 0xC6 0x2E EXTCODECOPY 0x2D 0xCA 0xCC PUSH26 0xCFF8E895B1D6C96A82D99B5023A629AB518E3B5464736F6C6343 STOP ADDMOD EQ STOP CALLER "},"methodIdentifiers":{"depositReward(bytes32)":"6d0a2ede","reclaimUnusedFunds(bytes32,address)":"8babaf18","releaseReward(bytes32,address,uint256)":"20bb7504","setSettlement(address)":"8f4e6f37","settlementContract()":"ea42418b","taskBalances(bytes32)":"de76d02e"}}}}}