{"contracts/SubmissionRegistry.sol":{"SubmissionRegistry":{"abi":[{"inputs":[],"stateMutability":"nonpayable","type":"constructor"},{"inputs":[],"name":"AlreadyProcessed","type":"error"},{"inputs":[],"name":"SubmissionNotFound","type":"error"},{"inputs":[],"name":"Unauthorized","type":"error"},{"anonymous":false,"inputs":[{"indexed":true,"internalType":"bytes32","name":"submissionId","type":"bytes32"},{"indexed":true,"internalType":"address","name":"participant","type":"address"},{"indexed":false,"internalType":"uint256","name":"amount","type":"uint256"}],"name":"RewardReleased","type":"event"},{"anonymous":false,"inputs":[{"indexed":true,"internalType":"bytes32","name":"submissionId","type":"bytes32"},{"indexed":true,"internalType":"bytes32","name":"taskId","type":"bytes32"},{"indexed":true,"internalType":"address","name":"participant","type":"address"},{"indexed":false,"internalType":"bytes32","name":"evidenceHash","type":"bytes32"}],"name":"SubmissionRecorded","type":"event"},{"anonymous":false,"inputs":[{"indexed":true,"internalType":"bytes32","name":"submissionId","type":"bytes32"},{"indexed":false,"internalType":"uint256","name":"score","type":"uint256"}],"name":"SubmissionRejected","type":"event"},{"anonymous":false,"inputs":[{"indexed":true,"internalType":"bytes32","name":"submissionId","type":"bytes32"},{"indexed":false,"internalType":"uint256","name":"score","type":"uint256"}],"name":"SubmissionVerified","type":"event"},{"inputs":[{"internalType":"bytes32","name":"submissionId","type":"bytes32"}],"name":"getSubmission","outputs":[{"internalType":"address","name":"participant","type":"address"},{"internalType":"uint8","name":"status","type":"uint8"},{"internalType":"uint256","name":"score","type":"uint256"},{"internalType":"bool","name":"payoutDone","type":"bool"}],"stateMutability":"view","type":"function"},{"inputs":[{"internalType":"bytes32","name":"submissionId","type":"bytes32"}],"name":"markPaid","outputs":[],"stateMutability":"nonpayable","type":"function"},{"inputs":[{"internalType":"bytes32","name":"submissionId","type":"bytes32"},{"internalType":"uint256","name":"score","type":"uint256"}],"name":"markRejected","outputs":[],"stateMutability":"nonpayable","type":"function"},{"inputs":[{"internalType":"bytes32","name":"submissionId","type":"bytes32"},{"internalType":"uint256","name":"score","type":"uint256"}],"name":"markVerified","outputs":[],"stateMutability":"nonpayable","type":"function"},{"inputs":[{"internalType":"bytes32","name":"submissionId","type":"bytes32"},{"internalType":"bytes32","name":"taskId","type":"bytes32"},{"internalType":"address","name":"participant","type":"address"},{"internalType":"bytes32","name":"evidenceHash","type":"bytes32"}],"name":"recordSubmission","outputs":[],"stateMutability":"nonpayable","type":"function"},{"inputs":[{"internalType":"address","name":"_settlement","type":"address"}],"name":"setSettlement","outputs":[],"stateMutability":"nonpayable","type":"function"},{"inputs":[],"name":"settlementContract","outputs":[{"internalType":"address","name":"","type":"address"}],"stateMutability":"view","type":"function"},{"inputs":[{"internalType":"bytes32","name":"","type":"bytes32"}],"name":"submissions","outputs":[{"internalType":"address","name":"participant","type":"address"},{"internalType":"bytes32","name":"evidenceHash","type":"bytes32"},{"internalType":"uint8","name":"status","type":"uint8"},{"internalType":"uint256","name":"score","type":"uint256"},{"internalType":"bool","name":"payoutDone","type":"bool"}],"stateMutability":"view","type":"function"}],"evm":{"bytecode":{"linkReferences":{},"object":"608060405234801561001057600080fd5b50600080546001600160a01b03191633179055610774806100326000396000f3fe608060405234801561001057600080fd5b50600436106100885760003560e01c8063c3b3cf1d1161005b578063c3b3cf1d1461010e578063c5c9c0a214610121578063defb2749146101ac578063ea42418b146101bf57600080fd5b8063756dd3a41461008d57806383b6db64146100d35780638f4e6f37146100e8578063bf3c6be1146100fb575b600080fd5b6100a061009b366004610688565b6101ea565b604080516001600160a01b03909516855260ff909316602085015291830152151560608201526080015b60405180910390f35b6100e66100e13660046106bd565b610257565b005b6100e66100f63660046106fa565b610387565b6100e661010936600461071c565b6103eb565b6100e661011c36600461071c565b6104c3565b61017061012f366004610688565b6001602081905260009182526040909120805491810154600282015460038301546004909301546001600160a01b0390941693919260ff9182169290911685565b604080516001600160a01b039096168652602086019490945260ff9092169284019290925260608301919091521515608082015260a0016100ca565b6100e66101ba366004610688565b610593565b6000546101d2906001600160a01b031681565b6040516001600160a01b0390911681526020016100ca565b60008181526001602052604081208054829182918291906001600160a01b0316610227576040516348f6fffd60e11b815260040160405180910390fd5b8054600282015460038301546004909301546001600160a01b039092169860ff9182169850929650169350915050565b6000546001600160a01b03163314610281576040516282b42960e81b815260040160405180910390fd5b6000848152600160205260409020546001600160a01b0316156102b757604051632bf773b360e11b815260040160405180910390fd5b6040805160a0810182526001600160a01b038481168083526020808401868152600085870181815260608701828152608088018381528d84526001808752938a9020985189546001600160a01b03191698169790971788559251918701919091555160028601805460ff1990811660ff90931692909217905590516003860155925160049094018054909316931515939093179091559151838152859187917f07c6384e82e395c4a72b4d4a4083a12bcdd7d3f1b8a05570cd736eb9fcc63d22910160405180910390a450505050565b6000546001600160a01b0316158015906103ac57506000546001600160a01b03163314155b156103c9576040516282b42960e81b815260040160405180910390fd5b600080546001600160a01b0319166001600160a01b0392909216919091179055565b6000546001600160a01b03163314610415576040516282b42960e81b815260040160405180910390fd5b600082815260016020526040902080546001600160a01b031661044b576040516348f6fffd60e11b815260040160405180910390fd5b600281015460ff161561047157604051632bf773b360e11b815260040160405180910390fd5b6002818101805460ff191690911790556003810182905560405182815283907ff692fdfb3dcb8e9c703b8cf17c982a7d87ea62764b772cf2ac1028cdc35f3a7c906020015b60405180910390a2505050565b6000546001600160a01b031633146104ed576040516282b42960e81b815260040160405180910390fd5b600082815260016020526040902080546001600160a01b0316610523576040516348f6fffd60e11b815260040160405180910390fd5b600281015460ff161561054957604051632bf773b360e11b815260040160405180910390fd5b60028101805460ff191660011790556003810182905560405183907fe07cbfcecbaa1c358af43b1b3fe79c337be4d29cb43c840da88a7b148a85d89e906104b69085815260200190565b6000546001600160a01b031633146105bd576040516282b42960e81b815260040160405180910390fd5b600081815260016020526040902080546001600160a01b03166105f3576040516348f6fffd60e11b815260040160405180910390fd5b600481015460ff161561061957604051632bf773b360e11b815260040160405180910390fd5b60048101805460ff19908116600117909155600282018054909116600317905580546040516001600160a01b039091169083907ff492c66c3740174fe441446adba82ccdc18cd2dc703b91ea62cbb9e35d4960469061067c906000815260200190565b60405180910390a35050565b60006020828403121561069a57600080fd5b5035919050565b80356001600160a01b03811681146106b857600080fd5b919050565b600080600080608085870312156106d357600080fd5b84359350602085013592506106ea604086016106a1565b9396929550929360600135925050565b60006020828403121561070c57600080fd5b610715826106a1565b9392505050565b6000806040838503121561072f57600080fd5b5050803592602090910135915056fea2646970667358221220b88146e2c2041fa855798b5ec7403fd73fdcf7de145cdb09b58f7a055797433764736f6c63430008140033","opcodes":"PUSH1 0x80 PUSH1 0x40 MSTORE CALLVALUE DUP1 ISZERO PUSH2 0x10 JUMPI PUSH1 0x0 DUP1 REVERT JUMPDEST POP PUSH1 0x0 DUP1 SLOAD PUSH1 0x1 PUSH1 0x1 PUSH1 0xA0 SHL SUB NOT AND CALLER OR SWAP1 SSTORE PUSH2 0x774 DUP1 PUSH2 0x32 PUSH1 0x0 CODECOPY PUSH1 0x0 RETURN INVALID PUSH1 0x80 PUSH1 0x40 MSTORE CALLVALUE DUP1 ISZERO PUSH2 0x10 JUMPI PUSH1 0x0 DUP1 REVERT JUMPDEST POP PUSH1 0x4 CALLDATASIZE LT PUSH2 0x88 JUMPI PUSH1 0x0 CALLDATALOAD PUSH1 0xE0 SHR DUP1 PUSH4 0xC3B3CF1D GT PUSH2 0x5B JUMPI DUP1 PUSH4 0xC3B3CF1D EQ PUSH2 0x10E JUMPI DUP1 PUSH4 0xC5C9C0A2 EQ PUSH2 0x121 JUMPI DUP1 PUSH4 0xDEFB2749 EQ PUSH2 0x1AC JUMPI DUP1 PUSH4 0xEA42418B EQ PUSH2 0x1BF JUMPI PUSH1 0x0 DUP1 REVERT JUMPDEST DUP1 PUSH4 0x756DD3A4 EQ PUSH2 0x8D JUMPI DUP1 PUSH4 0x83B6DB64 EQ PUSH2 0xD3 JUMPI DUP1 PUSH4 0x8F4E6F37 EQ PUSH2 0xE8 JUMPI DUP1 PUSH4 0xBF3C6BE1 EQ PUSH2 0xFB JUMPI JUMPDEST PUSH1 0x0 DUP1 REVERT JUMPDEST PUSH2 0xA0 PUSH2 0x9B CALLDATASIZE PUSH1 0x4 PUSH2 0x688 JUMP JUMPDEST PUSH2 0x1EA JUMP JUMPDEST PUSH1 0x40 DUP1 MLOAD PUSH1 0x1 PUSH1 0x1 PUSH1 0xA0 SHL SUB SWAP1 SWAP6 AND DUP6 MSTORE PUSH1 0xFF SWAP1 SWAP4 AND PUSH1 0x20 DUP6 ADD MSTORE SWAP2 DUP4 ADD MSTORE ISZERO ISZERO PUSH1 0x60 DUP3 ADD MSTORE PUSH1 0x80 ADD JUMPDEST PUSH1 0x40 MLOAD DUP1 SWAP2 SUB SWAP1 RETURN JUMPDEST PUSH2 0xE6 PUSH2 0xE1 CALLDATASIZE PUSH1 0x4 PUSH2 0x6BD JUMP JUMPDEST PUSH2 0x257 JUMP JUMPDEST STOP JUMPDEST PUSH2 0xE6 PUSH2 0xF6 CALLDATASIZE PUSH1 0x4 PUSH2 0x6FA JUMP JUMPDEST PUSH2 0x387 JUMP JUMPDEST PUSH2 0xE6 PUSH2 0x109 CALLDATASIZE PUSH1 0x4 PUSH2 0x71C JUMP JUMPDEST PUSH2 0x3EB JUMP JUMPDEST PUSH2 0xE6 PUSH2 0x11C CALLDATASIZE PUSH1 0x4 PUSH2 0x71C JUMP JUMPDEST PUSH2 0x4C3 JUMP JUMPDEST PUSH2 0x170 PUSH2 0x12F CALLDATASIZE PUSH1 0x4 PUSH2 0x688 JUMP JUMPDEST PUSH1 0x1 PUSH1 0x20 DUP2 SWAP1 MSTORE PUSH1 0x0 SWAP2 DUP3 MSTORE PUSH1 0x40 SWAP1 SWAP2 KECCAK256 DUP1 SLOAD SWAP2 DUP2 ADD SLOAD PUSH1 0x2 DUP3 ADD SLOAD PUSH1 0x3 DUP4 ADD SLOAD PUSH1 0x4 SWAP1 SWAP4 ADD SLOAD PUSH1 0x1 PUSH1 0x1 PUSH1 0xA0 SHL SUB SWAP1 SWAP5 AND SWAP4 SWAP2 SWAP3 PUSH1 0xFF SWAP2 DUP3 AND SWAP3 SWAP1 SWAP2 AND DUP6 JUMP JUMPDEST PUSH1 0x40 DUP1 MLOAD PUSH1 0x1 PUSH1 0x1 PUSH1 0xA0 SHL SUB SWAP1 SWAP7 AND DUP7 MSTORE PUSH1 0x20 DUP7 ADD SWAP5 SWAP1 SWAP5 MSTORE PUSH1 0xFF SWAP1 SWAP3 AND SWAP3 DUP5 ADD SWAP3 SWAP1 SWAP3 MSTORE PUSH1 0x60 DUP4 ADD SWAP2 SWAP1 SWAP2 MSTORE ISZERO ISZERO PUSH1 0x80 DUP3 ADD MSTORE PUSH1 0xA0 ADD PUSH2 0xCA JUMP JUMPDEST PUSH2 0xE6 PUSH2 0x1BA CALLDATASIZE PUSH1 0x4 PUSH2 0x688 JUMP JUMPDEST PUSH2 0x593 JUMP JUMPDEST PUSH1 0x0 SLOAD PUSH2 0x1D2 SWAP1 PUSH1 0x1 PUSH1 0x1 PUSH1 0xA0 SHL SUB AND DUP2 JUMP JUMPDEST PUSH1 0x40 MLOAD PUSH1 0x1 PUSH1 0x1 PUSH1 0xA0 SHL SUB SWAP1 SWAP2 AND DUP2 MSTORE PUSH1 0x20 ADD PUSH2 0xCA JUMP JUMPDEST PUSH1 0x0 DUP2 DUP2 MSTORE PUSH1 0x1 PUSH1 0x20 MSTORE PUSH1 0x40 DUP2 KECCAK256 DUP1 SLOAD DUP3 SWAP2 DUP3 SWAP2 DUP3 SWAP2 SWAP1 PUSH1 0x1 PUSH1 0x1 PUSH1 0xA0 SHL SUB AND PUSH2 0x227 JUMPI PUSH1 0x40 MLOAD PUSH4 0x48F6FFFD PUSH1 0xE1 SHL DUP2 MSTORE PUSH1 0x4 ADD PUSH1 0x40 MLOAD DUP1 SWAP2 SUB SWAP1 REVERT JUMPDEST DUP1 SLOAD PUSH1 0x2 DUP3 ADD SLOAD PUSH1 0x3 DUP4 ADD SLOAD PUSH1 0x4 SWAP1 SWAP4 ADD SLOAD PUSH1 0x1 PUSH1 0x1 PUSH1 0xA0 SHL SUB SWAP1 SWAP3 AND SWAP9 PUSH1 0xFF SWAP2 DUP3 AND SWAP9 POP SWAP3 SWAP7 POP AND SWAP4 POP SWAP2 POP POP JUMP JUMPDEST PUSH1 0x0 SLOAD PUSH1 0x1 PUSH1 0x1 PUSH1 0xA0 SHL SUB AND CALLER EQ PUSH2 0x281 JUMPI PUSH1 0x40 MLOAD PUSH3 0x82B429 PUSH1 0xE8 SHL DUP2 MSTORE PUSH1 0x4 ADD PUSH1 0x40 MLOAD DUP1 SWAP2 SUB SWAP1 REVERT JUMPDEST PUSH1 0x0 DUP5 DUP2 MSTORE PUSH1 0x1 PUSH1 0x20 MSTORE PUSH1 0x40 SWAP1 KECCAK256 SLOAD PUSH1 0x1 PUSH1 0x1 PUSH1 0xA0 SHL SUB AND ISZERO PUSH2 0x2B7 JUMPI PUSH1 0x40 MLOAD PUSH4 0x2BF773B3 PUSH1 0xE1 SHL DUP2 MSTORE PUSH1 0x4 ADD PUSH1 0x40 MLOAD DUP1 SWAP2 SUB SWAP1 REVERT JUMPDEST PUSH1 0x40 DUP1 MLOAD PUSH1 0xA0 DUP2 ADD DUP3 MSTORE PUSH1 0x1 PUSH1 0x1 PUSH1 0xA0 SHL SUB DUP5 DUP2 AND DUP1 DUP4 MSTORE PUSH1 0x20 DUP1 DUP5 ADD DUP7 DUP2 MSTORE PUSH1 0x0 DUP6 DUP8 ADD DUP2 DUP2 MSTORE PUSH1 0x60 DUP8 ADD DUP3 DUP2 MSTORE PUSH1 0x80 DUP9 ADD DUP4 DUP2 MSTORE DUP14 DUP5 MSTORE PUSH1 0x1 DUP1 DUP8 MSTORE SWAP4 DUP11 SWAP1 KECCAK256 SWAP9 MLOAD DUP10 SLOAD PUSH1 0x1 PUSH1 0x1 PUSH1 0xA0 SHL SUB NOT AND SWAP9 AND SWAP8 SWAP1 SWAP8 OR DUP9 SSTORE SWAP3 MLOAD SWAP2 DUP8 ADD SWAP2 SWAP1 SWAP2 SSTORE MLOAD PUSH1 0x2 DUP7 ADD DUP1 SLOAD PUSH1 0xFF NOT SWAP1 DUP2 AND PUSH1 0xFF SWAP1 SWAP4 AND SWAP3 SWAP1 SWAP3 OR SWAP1 SSTORE SWAP1 MLOAD PUSH1 0x3 DUP7 ADD SSTORE SWAP3 MLOAD PUSH1 0x4 SWAP1 SWAP5 ADD DUP1 SLOAD SWAP1 SWAP4 AND SWAP4 ISZERO ISZERO SWAP4 SWAP1 SWAP4 OR SWAP1 SWAP2 SSTORE SWAP2 MLOAD DUP4 DUP2 MSTORE DUP6 SWAP2 DUP8 SWAP2 PUSH32 0x7C6384E82E395C4A72B4D4A4083A12BCDD7D3F1B8A05570CD736EB9FCC63D22 SWAP2 ADD PUSH1 0x40 MLOAD DUP1 SWAP2 SUB SWAP1 LOG4 POP POP POP POP JUMP JUMPDEST PUSH1 0x0 SLOAD PUSH1 0x1 PUSH1 0x1 PUSH1 0xA0 SHL SUB AND ISZERO DUP1 ISZERO SWAP1 PUSH2 0x3AC JUMPI POP PUSH1 0x0 SLOAD PUSH1 0x1 PUSH1 0x1 PUSH1 0xA0 SHL SUB AND CALLER EQ ISZERO JUMPDEST ISZERO PUSH2 0x3C9 JUMPI PUSH1 0x40 MLOAD PUSH3 0x82B429 PUSH1 0xE8 SHL DUP2 MSTORE PUSH1 0x4 ADD PUSH1 0x40 MLOAD DUP1 SWAP2 SUB SWAP1 REVERT JUMPDEST PUSH1 0x0 DUP1 SLOAD PUSH1 0x1 PUSH1 0x1 PUSH1 0xA0 SHL SUB NOT AND PUSH1 0x1 PUSH1 0x1 PUSH1 0xA0 SHL SUB SWAP3 SWAP1 SWAP3 AND SWAP2 SWAP1 SWAP2 OR SWAP1 SSTORE JUMP JUMPDEST PUSH1 0x0 SLOAD PUSH1 0x1 PUSH1 0x1 PUSH1 0xA0 SHL SUB AND CALLER EQ PUSH2 0x415 JUMPI PUSH1 0x40 MLOAD PUSH3 0x82B429 PUSH1 0xE8 SHL DUP2 MSTORE PUSH1 0x4 ADD PUSH1 0x40 MLOAD DUP1 SWAP2 SUB SWAP1 REVERT JUMPDEST PUSH1 0x0 DUP3 DUP2 MSTORE PUSH1 0x1 PUSH1 0x20 MSTORE PUSH1 0x40 SWAP1 KECCAK256 DUP1 SLOAD PUSH1 0x1 PUSH1 0x1 PUSH1 0xA0 SHL SUB AND PUSH2 0x44B JUMPI PUSH1 0x40 MLOAD PUSH4 0x48F6FFFD PUSH1 0xE1 SHL DUP2 MSTORE PUSH1 0x4 ADD PUSH1 0x40 MLOAD DUP1 SWAP2 SUB SWAP1 REVERT JUMPDEST PUSH1 0x2 DUP2 ADD SLOAD PUSH1 0xFF AND ISZERO PUSH2 0x471 JUMPI PUSH1 0x40 MLOAD PUSH4 0x2BF773B3 PUSH1 0xE1 SHL DUP2 MSTORE PUSH1 0x4 ADD PUSH1 0x40 MLOAD DUP1 SWAP2 SUB SWAP1 REVERT JUMPDEST PUSH1 0x2 DUP2 DUP2 ADD DUP1 SLOAD PUSH1 0xFF NOT AND SWAP1 SWAP2 OR SWAP1 SSTORE PUSH1 0x3 DUP2 ADD DUP3 SWAP1 SSTORE PUSH1 0x40 MLOAD DUP3 DUP2 MSTORE DUP4 SWAP1 PUSH32 0xF692FDFB3DCB8E9C703B8CF17C982A7D87EA62764B772CF2AC1028CDC35F3A7C SWAP1 PUSH1 0x20 ADD JUMPDEST PUSH1 0x40 MLOAD DUP1 SWAP2 SUB SWAP1 LOG2 POP POP POP JUMP JUMPDEST PUSH1 0x0 SLOAD PUSH1 0x1 PUSH1 0x1 PUSH1 0xA0 SHL SUB AND CALLER EQ PUSH2 0x4ED JUMPI PUSH1 0x40 MLOAD PUSH3 0x82B429 PUSH1 0xE8 SHL DUP2 MSTORE PUSH1 0x4 ADD PUSH1 0x40 MLOAD DUP1 SWAP2 SUB SWAP1 REVERT JUMPDEST PUSH1 0x0 DUP3 DUP2 MSTORE PUSH1 0x1 PUSH1 0x20 MSTORE PUSH1 0x40 SWAP1 KECCAK256 DUP1 SLOAD PUSH1 0x1 PUSH1 0x1 PUSH1 0xA0 SHL SUB AND PUSH2 0x523 JUMPI PUSH1 0x40 MLOAD PUSH4 0x48F6FFFD PUSH1 0xE1 SHL DUP2 MSTORE PUSH1 0x4 ADD PUSH1 0x40 MLOAD DUP1 SWAP2 SUB SWAP1 REVERT JUMPDEST PUSH1 0x2 DUP2 ADD SLOAD PUSH1 0xFF AND ISZERO PUSH2 0x549 JUMPI PUSH1 0x40 MLOAD PUSH4 0x2BF773B3 PUSH1 0xE1 SHL DUP2 MSTORE PUSH1 0x4 ADD PUSH1 0x40 MLOAD DUP1 SWAP2 SUB SWAP1 REVERT JUMPDEST PUSH1 0x2 DUP2 ADD DUP1 SLOAD PUSH1 0xFF NOT AND PUSH1 0x1 OR SWAP1 SSTORE PUSH1 0x3 DUP2 ADD DUP3 SWAP1 SSTORE PUSH1 0x40 MLOAD DUP4 SWAP1 PUSH32 0xE07CBFCECBAA1C358AF43B1B3FE79C337BE4D29CB43C840DA88A7B148A85D89E SWAP1 PUSH2 0x4B6 SWAP1 DUP6 DUP2 MSTORE PUSH1 0x20 ADD SWAP1 JUMP JUMPDEST PUSH1 0x0 SLOAD PUSH1 0x1 PUSH1 0x1 PUSH1 0xA0 SHL SUB AND CALLER EQ PUSH2 0x5BD JUMPI PUSH1 0x40 MLOAD PUSH3 0x82B429 PUSH1 0xE8 SHL DUP2 MSTORE PUSH1 0x4 ADD PUSH1 0x40 MLOAD DUP1 SWAP2 SUB SWAP1 REVERT JUMPDEST PUSH1 0x0 DUP2 DUP2 MSTORE PUSH1 0x1 PUSH1 0x20 MSTORE PUSH1 0x40 SWAP1 KECCAK256 DUP1 SLOAD PUSH1 0x1 PUSH1 0x1 PUSH1 0xA0 SHL SUB AND PUSH2 0x5F3 JUMPI PUSH1 0x40 MLOAD PUSH4 0x48F6FFFD PUSH1 0xE1 SHL DUP2 MSTORE PUSH1 0x4 ADD PUSH1 0x40 MLOAD DUP1 SWAP2 SUB SWAP1 REVERT JUMPDEST PUSH1 0x4 DUP2 ADD SLOAD PUSH1 0xFF AND ISZERO PUSH2 0x619 JUMPI PUSH1 0x40 MLOAD PUSH4 0x2BF773B3 PUSH1 0xE1 SHL DUP2 MSTORE PUSH1 0x4 ADD PUSH1 0x40 MLOAD DUP1 SWAP2 SUB SWAP1 REVERT JUMPDEST PUSH1 0x4 DUP2 ADD DUP1 SLOAD PUSH1 0xFF NOT SWAP1 DUP2 AND PUSH1 0x1 OR SWAP1 SWAP2 SSTORE PUSH1 0x2 DUP3 ADD DUP1 SLOAD SWAP1 SWAP2 AND PUSH1 0x3 OR SWAP1 SSTORE DUP1 SLOAD PUSH1 0x40 MLOAD PUSH1 0x1 PUSH1 0x1 PUSH1 0xA0 SHL SUB SWAP1 SWAP2 AND SWAP1 DUP4 SWAP1 PUSH32 0xF492C66C3740174FE441446ADBA82CCDC18CD2DC703B91EA62CBB9E35D496046 SWAP1 PUSH2 0x67C SWAP1 PUSH1 0x0 DUP2 MSTORE PUSH1 0x20 ADD SWAP1 JUMP JUMPDEST PUSH1 0x40 MLOAD DUP1 SWAP2 SUB SWAP1 LOG3 POP POP JUMP JUMPDEST PUSH1 0x0 PUSH1 0x20 DUP3 DUP5 SUB SLT ISZERO PUSH2 0x69A JUMPI PUSH1 0x0 DUP1 REVERT JUMPDEST POP CALLDATALOAD SWAP2 SWAP1 POP JUMP JUMPDEST DUP1 CALLDATALOAD PUSH1 0x1 PUSH1 0x1 PUSH1 0xA0 SHL SUB DUP2 AND DUP2 EQ PUSH2 0x6B8 JUMPI PUSH1 0x0 DUP1 REVERT JUMPDEST SWAP2 SWAP1 POP JUMP JUMPDEST PUSH1 0x0 DUP1 PUSH1 0x0 DUP1 PUSH1 0x80 DUP6 DUP8 SUB SLT ISZERO PUSH2 0x6D3 JUMPI PUSH1 0x0 DUP1 REVERT JUMPDEST DUP5 CALLDATALOAD SWAP4 POP PUSH1 0x20 DUP6 ADD CALLDATALOAD SWAP3 POP PUSH2 0x6EA PUSH1 0x40 DUP7 ADD PUSH2 0x6A1 JUMP JUMPDEST SWAP4 SWAP7 SWAP3 SWAP6 POP SWAP3 SWAP4 PUSH1 0x60 ADD CALLDATALOAD SWAP3 POP POP JUMP JUMPDEST PUSH1 0x0 PUSH1 0x20 DUP3 DUP5 SUB SLT ISZERO PUSH2 0x70C JUMPI PUSH1 0x0 DUP1 REVERT JUMPDEST PUSH2 0x715 DUP3 PUSH2 0x6A1 JUMP JUMPDEST SWAP4 SWAP3 POP POP POP JUMP JUMPDEST PUSH1 0x0 DUP1 PUSH1 0x40 DUP4 DUP6 SUB SLT ISZERO PUSH2 0x72F JUMPI PUSH1 0x0 DUP1 REVERT JUMPDEST POP POP DUP1 CALLDATALOAD SWAP3 PUSH1 0x20 SWAP1 SWAP2 ADD CALLDATALOAD SWAP2 POP JUMP INVALID LOG2 PUSH5 0x6970667358 0x22 SLT KECCAK256 0xB8 DUP2 CHAINID 0xE2 0xC2 DIV 0x1F 0xA8 SSTORE PUSH26 0x8B5EC7403FD73FDCF7DE145CDB09B58F7A055797433764736F6C PUSH4 0x43000814 STOP CALLER "},"methodIdentifiers":{"getSubmission(bytes32)":"756dd3a4","markPaid(bytes32)":"defb2749","markRejected(bytes32,uint256)":"bf3c6be1","markVerified(bytes32,uint256)":"c3b3cf1d","recordSubmission(bytes32,bytes32,address,bytes32)":"83b6db64","setSettlement(address)":"8f4e6f37","settlementContract()":"ea42418b","submissions(bytes32)":"c5c9c0a2"}}}}}