{"contracts/Settlement.sol":{"Settlement":{"abi":[{"inputs":[{"internalType":"address","name":"_taskRegistry","type":"address"},{"internalType":"address","name":"_escrowVault","type":"address"},{"internalType":"address","name":"_submissionRegistry","type":"address"}],"stateMutability":"nonpayable","type":"constructor"},{"inputs":[],"name":"AlreadySettled","type":"error"},{"inputs":[],"name":"SubmissionNotVerified","type":"error"},{"inputs":[],"name":"TaskNotFound","type":"error"},{"inputs":[],"name":"Unauthorized","type":"error"},{"anonymous":false,"inputs":[{"indexed":true,"internalType":"bytes32","name":"taskId","type":"bytes32"},{"indexed":true,"internalType":"bytes32","name":"submissionId","type":"bytes32"},{"indexed":false,"internalType":"address","name":"participant","type":"address"},{"indexed":false,"internalType":"uint256","name":"amount","type":"uint256"}],"name":"Settled","type":"event"},{"inputs":[],"name":"escrowVault","outputs":[{"internalType":"contract EscrowVault","name":"","type":"address"}],"stateMutability":"view","type":"function"},{"inputs":[{"internalType":"bytes32","name":"submissionId","type":"bytes32"},{"internalType":"uint256","name":"score","type":"uint256"}],"name":"markRejectedOnly","outputs":[],"stateMutability":"nonpayable","type":"function"},{"inputs":[{"internalType":"bytes32","name":"submissionId","type":"bytes32"},{"internalType":"uint256","name":"score","type":"uint256"}],"name":"markVerifiedOnly","outputs":[],"stateMutability":"nonpayable","type":"function"},{"inputs":[{"internalType":"bytes32","name":"submissionId","type":"bytes32"},{"internalType":"bytes32","name":"taskId","type":"bytes32"},{"internalType":"address","name":"participant","type":"address"},{"internalType":"bytes32","name":"evidenceHash","type":"bytes32"}],"name":"recordSubmission","outputs":[],"stateMutability":"nonpayable","type":"function"},{"inputs":[{"internalType":"bytes32","name":"taskId","type":"bytes32"},{"internalType":"bytes32","name":"submissionId","type":"bytes32"}],"name":"releaseReward","outputs":[],"stateMutability":"nonpayable","type":"function"},{"inputs":[{"internalType":"bytes32","name":"taskId","type":"bytes32"},{"internalType":"bytes32","name":"submissionId","type":"bytes32"},{"internalType":"uint256","name":"score","type":"uint256"},{"internalType":"uint256","name":"thresholdBps","type":"uint256"}],"name":"resolveAndSettle","outputs":[],"stateMutability":"nonpayable","type":"function"},{"inputs":[{"internalType":"bytes32","name":"","type":"bytes32"},{"internalType":"bytes32","name":"","type":"bytes32"}],"name":"settled","outputs":[{"internalType":"bool","name":"","type":"bool"}],"stateMutability":"view","type":"function"},{"inputs":[],"name":"submissionRegistry","outputs":[{"internalType":"contract SubmissionRegistry","name":"","type":"address"}],"stateMutability":"view","type":"function"},{"inputs":[],"name":"taskRegistry","outputs":[{"internalType":"contract TaskRegistry","name":"","type":"address"}],"stateMutability":"view","type":"function"}],"evm":{"bytecode":{"linkReferences":{},"object":"608060405234801561001057600080fd5b50604051610c0f380380610c0f83398101604081905261002f9161013d565b600080546001600160a01b038581166001600160a01b0319928316179092556001805485841690831681179091556002805493851693909216929092179055604051638f4e6f3760e01b8152306004820152638f4e6f3790602401600060405180830381600087803b1580156100a457600080fd5b505af11580156100b8573d6000803e3d6000fd5b5050600254604051638f4e6f3760e01b81523060048201526001600160a01b039091169250638f4e6f379150602401600060405180830381600087803b15801561010157600080fd5b505af1158015610115573d6000803e3d6000fd5b50505050505050610180565b80516001600160a01b038116811461013857600080fd5b919050565b60008060006060848603121561015257600080fd5b61015b84610121565b925061016960208501610121565b915061017760408501610121565b90509250925092565b610a808061018f6000396000f3fe608060405234801561001057600080fd5b50600436106100935760003560e01c80639ce4e508116100665780639ce4e508146101035780639e498f1614610116578063a556933e14610129578063af67e9ad1461013c578063b94f53511461014f57600080fd5b80633e10ef381461009857806383b6db64146100c85780638a2ae60b146100dd578063967155c1146100f0575b600080fd5b6002546100ab906001600160a01b031681565b6040516001600160a01b0390911681526020015b60405180910390f35b6100db6100d63660046108f5565b61018d565b005b6001546100ab906001600160a01b031681565b6100db6100fe366004610934565b610207565b6100db610111366004610966565b610597565b6000546100ab906001600160a01b031681565b6100db610137366004610966565b610601565b6100db61014a366004610966565b610639565b61017d61015d366004610966565b600360209081526000928352604080842090915290825290205460ff1681565b60405190151581526020016100bf565b6002546040516320edb6d960e21b815260048101869052602481018590526001600160a01b03848116604483015260648201849052909116906383b6db6490608401600060405180830381600087803b1580156101e957600080fd5b505af11580156101fd573d6000803e3d6000fd5b5050505050505050565b600084815260036020908152604080832086845290915290205460ff16156102415760405162560ff960e81b815260040160405180910390fd5b600080546040516315a2903560e01b8152600481018790528291829182916001600160a01b0316906315a290359060240160a060405180830381865afa15801561028f573d6000803e3d6000fd5b505050506040513d601f19601f820116820180604052508101906102b3919061099d565b9397509195509350909150506001600160a01b0384166102e65760405163c325ae3360e01b815260040160405180910390fd5b806103045760405163c325ae3360e01b815260040160405180910390fd5b8186106105285760025460405163c3b3cf1d60e01b815260048101899052602481018890526001600160a01b039091169063c3b3cf1d90604401600060405180830381600087803b15801561035857600080fd5b505af115801561036c573d6000803e3d6000fd5b5050600254604051631d5b74e960e21b8152600481018b9052600093508392506001600160a01b039091169063756dd3a490602401608060405180830381865afa1580156103be573d6000803e3d6000fd5b505050506040513d601f19601f820116820180604052508101906103e291906109f1565b935050509150806105215760025460405163defb274960e01b8152600481018b90526001600160a01b039091169063defb274990602401600060405180830381600087803b15801561043357600080fd5b505af1158015610447573d6000803e3d6000fd5b505060015460405163082edd4160e21b8152600481018e90526001600160a01b038681166024830152604482018a905290911692506320bb75049150606401600060405180830381600087803b1580156104a057600080fd5b505af11580156104b4573d6000803e3d6000fd5b50505060008b81526003602090815260408083208d8452825291829020805460ff1916600117905581516001600160a01b03861681529081018890528b92508c917fe7ddf34febf549e1b39462318c39380b469024c645400bfeab0268b9247e655e910160405180910390a35b50506101fd565b60025460405163bf3c6be160e01b815260048101899052602481018890526001600160a01b039091169063bf3c6be190604401600060405180830381600087803b15801561057557600080fd5b505af1158015610589573d6000803e3d6000fd5b505050505050505050505050565b60025460405163bf3c6be160e01b815260048101849052602481018390526001600160a01b039091169063bf3c6be1906044015b600060405180830381600087803b1580156105e557600080fd5b505af11580156105f9573d6000803e3d6000fd5b505050505050565b60025460405163c3b3cf1d60e01b815260048101849052602481018390526001600160a01b039091169063c3b3cf1d906044016105cb565b600082815260036020908152604080832084845290915290205460ff16156106735760405162560ff960e81b815260040160405180910390fd5b600254604051631d5b74e960e21b815260048101839052600091829182916001600160a01b03169063756dd3a490602401608060405180830381865afa1580156106c1573d6000803e3d6000fd5b505050506040513d601f19601f820116820180604052508101906106e591906109f1565b935050925092508160ff1660011461071057604051630dfe354360e41b815260040160405180910390fd5b801561072e5760405162560ff960e81b815260040160405180910390fd5b600080546040516315a2903560e01b8152600481018890526001600160a01b03909116906315a290359060240160a060405180830381865afa158015610778573d6000803e3d6000fd5b505050506040513d601f19601f8201168201806040525081019061079c919061099d565b505060025460405163defb274960e01b8152600481018a90529294506001600160a01b0316925063defb2749916024019050600060405180830381600087803b1580156107e857600080fd5b505af11580156107fc573d6000803e3d6000fd5b505060015460405163082edd4160e21b8152600481018a90526001600160a01b0388811660248301526044820186905290911692506320bb75049150606401600060405180830381600087803b15801561085557600080fd5b505af1158015610869573d6000803e3d6000fd5b5050506000878152600360209081526040808320898452825291829020805460ff1916600117905581516001600160a01b038816815290810184905287925088917fe7ddf34febf549e1b39462318c39380b469024c645400bfeab0268b9247e655e910160405180910390a3505050505050565b6001600160a01b03811681146108f257600080fd5b50565b6000806000806080858703121561090b57600080fd5b84359350602085013592506040850135610924816108dd565b9396929550929360600135925050565b6000806000806080858703121561094a57600080fd5b5050823594602084013594506040840135936060013592509050565b6000806040838503121561097957600080fd5b50508035926020909101359150565b8051801515811461099857600080fd5b919050565b600080600080600060a086880312156109b557600080fd5b85516109c0816108dd565b809550506020860151935060408601519250606086015191506109e560808701610988565b90509295509295909350565b60008060008060808587031215610a0757600080fd5b8451610a12816108dd565b602086015190945060ff81168114610a2957600080fd5b60408601519093509150610a3f60608601610988565b90509295919450925056fea2646970667358221220b01ec1fc7a80d956161d970051cef5662ffc1332e5aae47d0b51d2c50170833164736f6c63430008140033","opcodes":"PUSH1 0x80 PUSH1 0x40 MSTORE CALLVALUE DUP1 ISZERO PUSH2 0x10 JUMPI PUSH1 0x0 DUP1 REVERT JUMPDEST POP PUSH1 0x40 MLOAD PUSH2 0xC0F CODESIZE SUB DUP1 PUSH2 0xC0F DUP4 CODECOPY DUP2 ADD PUSH1 0x40 DUP2 SWAP1 MSTORE PUSH2 0x2F SWAP2 PUSH2 0x13D JUMP JUMPDEST PUSH1 0x0 DUP1 SLOAD PUSH1 0x1 PUSH1 0x1 PUSH1 0xA0 SHL SUB DUP6 DUP2 AND PUSH1 0x1 PUSH1 0x1 PUSH1 0xA0 SHL SUB NOT SWAP3 DUP4 AND OR SWAP1 SWAP3 SSTORE PUSH1 0x1 DUP1 SLOAD DUP6 DUP5 AND SWAP1 DUP4 AND DUP2 OR SWAP1 SWAP2 SSTORE PUSH1 0x2 DUP1 SLOAD SWAP4 DUP6 AND SWAP4 SWAP1 SWAP3 AND SWAP3 SWAP1 SWAP3 OR SWAP1 SSTORE PUSH1 0x40 MLOAD PUSH4 0x8F4E6F37 PUSH1 0xE0 SHL DUP2 MSTORE ADDRESS PUSH1 0x4 DUP3 ADD MSTORE PUSH4 0x8F4E6F37 SWAP1 PUSH1 0x24 ADD PUSH1 0x0 PUSH1 0x40 MLOAD DUP1 DUP4 SUB DUP2 PUSH1 0x0 DUP8 DUP1 EXTCODESIZE ISZERO DUP1 ISZERO PUSH2 0xA4 JUMPI PUSH1 0x0 DUP1 REVERT JUMPDEST POP GAS CALL ISZERO DUP1 ISZERO PUSH2 0xB8 JUMPI RETURNDATASIZE PUSH1 0x0 DUP1 RETURNDATACOPY RETURNDATASIZE PUSH1 0x0 REVERT JUMPDEST POP POP PUSH1 0x2 SLOAD PUSH1 0x40 MLOAD PUSH4 0x8F4E6F37 PUSH1 0xE0 SHL DUP2 MSTORE ADDRESS PUSH1 0x4 DUP3 ADD MSTORE PUSH1 0x1 PUSH1 0x1 PUSH1 0xA0 SHL SUB SWAP1 SWAP2 AND SWAP3 POP PUSH4 0x8F4E6F37 SWAP2 POP PUSH1 0x24 ADD PUSH1 0x0 PUSH1 0x40 MLOAD DUP1 DUP4 SUB DUP2 PUSH1 0x0 DUP8 DUP1 EXTCODESIZE ISZERO DUP1 ISZERO PUSH2 0x101 JUMPI PUSH1 0x0 DUP1 REVERT JUMPDEST POP GAS CALL ISZERO DUP1 ISZERO PUSH2 0x115 JUMPI RETURNDATASIZE PUSH1 0x0 DUP1 RETURNDATACOPY RETURNDATASIZE PUSH1 0x0 REVERT JUMPDEST POP POP POP POP POP POP POP PUSH2 0x180 JUMP JUMPDEST DUP1 MLOAD PUSH1 0x1 PUSH1 0x1 PUSH1 0xA0 SHL SUB DUP2 AND DUP2 EQ PUSH2 0x138 JUMPI PUSH1 0x0 DUP1 REVERT JUMPDEST SWAP2 SWAP1 POP JUMP JUMPDEST PUSH1 0x0 DUP1 PUSH1 0x0 PUSH1 0x60 DUP5 DUP7 SUB SLT ISZERO PUSH2 0x152 JUMPI PUSH1 0x0 DUP1 REVERT JUMPDEST PUSH2 0x15B DUP5 PUSH2 0x121 JUMP JUMPDEST SWAP3 POP PUSH2 0x169 PUSH1 0x20 DUP6 ADD PUSH2 0x121 JUMP JUMPDEST SWAP2 POP PUSH2 0x177 PUSH1 0x40 DUP6 ADD PUSH2 0x121 JUMP JUMPDEST SWAP1 POP SWAP3 POP SWAP3 POP SWAP3 JUMP JUMPDEST PUSH2 0xA80 DUP1 PUSH2 0x18F PUSH1 0x0 CODECOPY PUSH1 0x0 RETURN INVALID PUSH1 0x80 PUSH1 0x40 MSTORE CALLVALUE DUP1 ISZERO PUSH2 0x10 JUMPI PUSH1 0x0 DUP1 REVERT JUMPDEST POP PUSH1 0x4 CALLDATASIZE LT PUSH2 0x93 JUMPI PUSH1 0x0 CALLDATALOAD PUSH1 0xE0 SHR DUP1 PUSH4 0x9CE4E508 GT PUSH2 0x66 JUMPI DUP1 PUSH4 0x9CE4E508 EQ PUSH2 0x103 JUMPI DUP1 PUSH4 0x9E498F16 EQ PUSH2 0x116 JUMPI DUP1 PUSH4 0xA556933E EQ PUSH2 0x129 JUMPI DUP1 PUSH4 0xAF67E9AD EQ PUSH2 0x13C JUMPI DUP1 PUSH4 0xB94F5351 EQ PUSH2 0x14F JUMPI PUSH1 0x0 DUP1 REVERT JUMPDEST DUP1 PUSH4 0x3E10EF38 EQ PUSH2 0x98 JUMPI DUP1 PUSH4 0x83B6DB64 EQ PUSH2 0xC8 JUMPI DUP1 PUSH4 0x8A2AE60B EQ PUSH2 0xDD JUMPI DUP1 PUSH4 0x967155C1 EQ PUSH2 0xF0 JUMPI JUMPDEST PUSH1 0x0 DUP1 REVERT JUMPDEST PUSH1 0x2 SLOAD PUSH2 0xAB SWAP1 PUSH1 0x1 PUSH1 0x1 PUSH1 0xA0 SHL SUB AND DUP2 JUMP JUMPDEST PUSH1 0x40 MLOAD PUSH1 0x1 PUSH1 0x1 PUSH1 0xA0 SHL SUB SWAP1 SWAP2 AND DUP2 MSTORE PUSH1 0x20 ADD JUMPDEST PUSH1 0x40 MLOAD DUP1 SWAP2 SUB SWAP1 RETURN JUMPDEST PUSH2 0xDB PUSH2 0xD6 CALLDATASIZE PUSH1 0x4 PUSH2 0x8F5 JUMP JUMPDEST PUSH2 0x18D JUMP JUMPDEST STOP JUMPDEST PUSH1 0x1 SLOAD PUSH2 0xAB SWAP1 PUSH1 0x1 PUSH1 0x1 PUSH1 0xA0 SHL SUB AND DUP2 JUMP JUMPDEST PUSH2 0xDB PUSH2 0xFE CALLDATASIZE PUSH1 0x4 PUSH2 0x934 JUMP JUMPDEST PUSH2 0x207 JUMP JUMPDEST PUSH2 0xDB PUSH2 0x111 CALLDATASIZE PUSH1 0x4 PUSH2 0x966 JUMP JUMPDEST PUSH2 0x597 JUMP JUMPDEST PUSH1 0x0 SLOAD PUSH2 0xAB SWAP1 PUSH1 0x1 PUSH1 0x1 PUSH1 0xA0 SHL SUB AND DUP2 JUMP JUMPDEST PUSH2 0xDB PUSH2 0x137 CALLDATASIZE PUSH1 0x4 PUSH2 0x966 JUMP JUMPDEST PUSH2 0x601 JUMP JUMPDEST PUSH2 0xDB PUSH2 0x14A CALLDATASIZE PUSH1 0x4 PUSH2 0x966 JUMP JUMPDEST PUSH2 0x639 JUMP JUMPDEST PUSH2 0x17D PUSH2 0x15D CALLDATASIZE PUSH1 0x4 PUSH2 0x966 JUMP JUMPDEST PUSH1 0x3 PUSH1 0x20 SWAP1 DUP2 MSTORE PUSH1 0x0 SWAP3 DUP4 MSTORE PUSH1 0x40 DUP1 DUP5 KECCAK256 SWAP1 SWAP2 MSTORE SWAP1 DUP3 MSTORE SWAP1 KECCAK256 SLOAD PUSH1 0xFF AND DUP2 JUMP JUMPDEST PUSH1 0x40 MLOAD SWAP1 ISZERO ISZERO DUP2 MSTORE PUSH1 0x20 ADD PUSH2 0xBF JUMP JUMPDEST PUSH1 0x2 SLOAD PUSH1 0x40 MLOAD PUSH4 0x20EDB6D9 PUSH1 0xE2 SHL DUP2 MSTORE PUSH1 0x4 DUP2 ADD DUP7 SWAP1 MSTORE PUSH1 0x24 DUP2 ADD DUP6 SWAP1 MSTORE PUSH1 0x1 PUSH1 0x1 PUSH1 0xA0 SHL SUB DUP5 DUP2 AND PUSH1 0x44 DUP4 ADD MSTORE PUSH1 0x64 DUP3 ADD DUP5 SWAP1 MSTORE SWAP1 SWAP2 AND SWAP1 PUSH4 0x83B6DB64 SWAP1 PUSH1 0x84 ADD PUSH1 0x0 PUSH1 0x40 MLOAD DUP1 DUP4 SUB DUP2 PUSH1 0x0 DUP8 DUP1 EXTCODESIZE ISZERO DUP1 ISZERO PUSH2 0x1E9 JUMPI PUSH1 0x0 DUP1 REVERT JUMPDEST POP GAS CALL ISZERO DUP1 ISZERO PUSH2 0x1FD JUMPI RETURNDATASIZE PUSH1 0x0 DUP1 RETURNDATACOPY RETURNDATASIZE PUSH1 0x0 REVERT JUMPDEST POP POP POP POP POP POP POP POP JUMP JUMPDEST PUSH1 0x0 DUP5 DUP2 MSTORE PUSH1 0x3 PUSH1 0x20 SWAP1 DUP2 MSTORE PUSH1 0x40 DUP1 DUP4 KECCAK256 DUP7 DUP5 MSTORE SWAP1 SWAP2 MSTORE SWAP1 KECCAK256 SLOAD PUSH1 0xFF AND ISZERO PUSH2 0x241 JUMPI PUSH1 0x40 MLOAD PUSH3 0x560FF9 PUSH1 0xE8 SHL DUP2 MSTORE PUSH1 0x4 ADD PUSH1 0x40 MLOAD DUP1 SWAP2 SUB SWAP1 REVERT JUMPDEST PUSH1 0x0 DUP1 SLOAD PUSH1 0x40 MLOAD PUSH4 0x15A29035 PUSH1 0xE0 SHL DUP2 MSTORE PUSH1 0x4 DUP2 ADD DUP8 SWAP1 MSTORE DUP3 SWAP2 DUP3 SWAP2 DUP3 SWAP2 PUSH1 0x1 PUSH1 0x1 PUSH1 0xA0 SHL SUB AND SWAP1 PUSH4 0x15A29035 SWAP1 PUSH1 0x24 ADD PUSH1 0xA0 PUSH1 0x40 MLOAD DUP1 DUP4 SUB DUP2 DUP7 GAS STATICCALL ISZERO DUP1 ISZERO PUSH2 0x28F JUMPI RETURNDATASIZE PUSH1 0x0 DUP1 RETURNDATACOPY RETURNDATASIZE PUSH1 0x0 REVERT JUMPDEST POP POP POP POP PUSH1 0x40 MLOAD RETURNDATASIZE PUSH1 0x1F NOT PUSH1 0x1F DUP3 ADD AND DUP3 ADD DUP1 PUSH1 0x40 MSTORE POP DUP2 ADD SWAP1 PUSH2 0x2B3 SWAP2 SWAP1 PUSH2 0x99D JUMP JUMPDEST SWAP4 SWAP8 POP SWAP2 SWAP6 POP SWAP4 POP SWAP1 SWAP2 POP POP PUSH1 0x1 PUSH1 0x1 PUSH1 0xA0 SHL SUB DUP5 AND PUSH2 0x2E6 JUMPI PUSH1 0x40 MLOAD PUSH4 0xC325AE33 PUSH1 0xE0 SHL DUP2 MSTORE PUSH1 0x4 ADD PUSH1 0x40 MLOAD DUP1 SWAP2 SUB SWAP1 REVERT JUMPDEST DUP1 PUSH2 0x304 JUMPI PUSH1 0x40 MLOAD PUSH4 0xC325AE33 PUSH1 0xE0 SHL DUP2 MSTORE PUSH1 0x4 ADD PUSH1 0x40 MLOAD DUP1 SWAP2 SUB SWAP1 REVERT JUMPDEST DUP2 DUP7 LT PUSH2 0x528 JUMPI PUSH1 0x2 SLOAD PUSH1 0x40 MLOAD PUSH4 0xC3B3CF1D PUSH1 0xE0 SHL DUP2 MSTORE PUSH1 0x4 DUP2 ADD DUP10 SWAP1 MSTORE PUSH1 0x24 DUP2 ADD DUP9 SWAP1 MSTORE PUSH1 0x1 PUSH1 0x1 PUSH1 0xA0 SHL SUB SWAP1 SWAP2 AND SWAP1 PUSH4 0xC3B3CF1D SWAP1 PUSH1 0x44 ADD PUSH1 0x0 PUSH1 0x40 MLOAD DUP1 DUP4 SUB DUP2 PUSH1 0x0 DUP8 DUP1 EXTCODESIZE ISZERO DUP1 ISZERO PUSH2 0x358 JUMPI PUSH1 0x0 DUP1 REVERT JUMPDEST POP GAS CALL ISZERO DUP1 ISZERO PUSH2 0x36C JUMPI RETURNDATASIZE PUSH1 0x0 DUP1 RETURNDATACOPY RETURNDATASIZE PUSH1 0x0 REVERT JUMPDEST POP POP PUSH1 0x2 SLOAD PUSH1 0x40 MLOAD PUSH4 0x1D5B74E9 PUSH1 0xE2 SHL DUP2 MSTORE PUSH1 0x4 DUP2 ADD DUP12 SWAP1 MSTORE PUSH1 0x0 SWAP4 POP DUP4 SWAP3 POP PUSH1 0x1 PUSH1 0x1 PUSH1 0xA0 SHL SUB SWAP1 SWAP2 AND SWAP1 PUSH4 0x756DD3A4 SWAP1 PUSH1 0x24 ADD PUSH1 0x80 PUSH1 0x40 MLOAD DUP1 DUP4 SUB DUP2 DUP7 GAS STATICCALL ISZERO DUP1 ISZERO PUSH2 0x3BE JUMPI RETURNDATASIZE PUSH1 0x0 DUP1 RETURNDATACOPY RETURNDATASIZE PUSH1 0x0 REVERT JUMPDEST POP POP POP POP PUSH1 0x40 MLOAD RETURNDATASIZE PUSH1 0x1F NOT PUSH1 0x1F DUP3 ADD AND DUP3 ADD DUP1 PUSH1 0x40 MSTORE POP DUP2 ADD SWAP1 PUSH2 0x3E2 SWAP2 SWAP1 PUSH2 0x9F1 JUMP JUMPDEST SWAP4 POP POP POP SWAP2 POP DUP1 PUSH2 0x521 JUMPI PUSH1 0x2 SLOAD PUSH1 0x40 MLOAD PUSH4 0xDEFB2749 PUSH1 0xE0 SHL DUP2 MSTORE PUSH1 0x4 DUP2 ADD DUP12 SWAP1 MSTORE PUSH1 0x1 PUSH1 0x1 PUSH1 0xA0 SHL SUB SWAP1 SWAP2 AND SWAP1 PUSH4 0xDEFB2749 SWAP1 PUSH1 0x24 ADD PUSH1 0x0 PUSH1 0x40 MLOAD DUP1 DUP4 SUB DUP2 PUSH1 0x0 DUP8 DUP1 EXTCODESIZE ISZERO DUP1 ISZERO PUSH2 0x433 JUMPI PUSH1 0x0 DUP1 REVERT JUMPDEST POP GAS CALL ISZERO DUP1 ISZERO PUSH2 0x447 JUMPI RETURNDATASIZE PUSH1 0x0 DUP1 RETURNDATACOPY RETURNDATASIZE PUSH1 0x0 REVERT JUMPDEST POP POP PUSH1 0x1 SLOAD PUSH1 0x40 MLOAD PUSH4 0x82EDD41 PUSH1 0xE2 SHL DUP2 MSTORE PUSH1 0x4 DUP2 ADD DUP15 SWAP1 MSTORE PUSH1 0x1 PUSH1 0x1 PUSH1 0xA0 SHL SUB DUP7 DUP2 AND PUSH1 0x24 DUP4 ADD MSTORE PUSH1 0x44 DUP3 ADD DUP11 SWAP1 MSTORE SWAP1 SWAP2 AND SWAP3 POP PUSH4 0x20BB7504 SWAP2 POP PUSH1 0x64 ADD PUSH1 0x0 PUSH1 0x40 MLOAD DUP1 DUP4 SUB DUP2 PUSH1 0x0 DUP8 DUP1 EXTCODESIZE ISZERO DUP1 ISZERO PUSH2 0x4A0 JUMPI PUSH1 0x0 DUP1 REVERT JUMPDEST POP GAS CALL ISZERO DUP1 ISZERO PUSH2 0x4B4 JUMPI RETURNDATASIZE PUSH1 0x0 DUP1 RETURNDATACOPY RETURNDATASIZE PUSH1 0x0 REVERT JUMPDEST POP POP POP PUSH1 0x0 DUP12 DUP2 MSTORE PUSH1 0x3 PUSH1 0x20 SWAP1 DUP2 MSTORE PUSH1 0x40 DUP1 DUP4 KECCAK256 DUP14 DUP5 MSTORE DUP3 MSTORE SWAP2 DUP3 SWAP1 KECCAK256 DUP1 SLOAD PUSH1 0xFF NOT AND PUSH1 0x1 OR SWAP1 SSTORE DUP2 MLOAD PUSH1 0x1 PUSH1 0x1 PUSH1 0xA0 SHL SUB DUP7 AND DUP2 MSTORE SWAP1 DUP2 ADD DUP9 SWAP1 MSTORE DUP12 SWAP3 POP DUP13 SWAP2 PUSH32 0xE7DDF34FEBF549E1B39462318C39380B469024C645400BFEAB0268B9247E655E SWAP2 ADD PUSH1 0x40 MLOAD DUP1 SWAP2 SUB SWAP1 LOG3 JUMPDEST POP POP PUSH2 0x1FD JUMP JUMPDEST PUSH1 0x2 SLOAD PUSH1 0x40 MLOAD PUSH4 0xBF3C6BE1 PUSH1 0xE0 SHL DUP2 MSTORE PUSH1 0x4 DUP2 ADD DUP10 SWAP1 MSTORE PUSH1 0x24 DUP2 ADD DUP9 SWAP1 MSTORE PUSH1 0x1 PUSH1 0x1 PUSH1 0xA0 SHL SUB SWAP1 SWAP2 AND SWAP1 PUSH4 0xBF3C6BE1 SWAP1 PUSH1 0x44 ADD PUSH1 0x0 PUSH1 0x40 MLOAD DUP1 DUP4 SUB DUP2 PUSH1 0x0 DUP8 DUP1 EXTCODESIZE ISZERO DUP1 ISZERO PUSH2 0x575 JUMPI PUSH1 0x0 DUP1 REVERT JUMPDEST POP GAS CALL ISZERO DUP1 ISZERO PUSH2 0x589 JUMPI RETURNDATASIZE PUSH1 0x0 DUP1 RETURNDATACOPY RETURNDATASIZE PUSH1 0x0 REVERT JUMPDEST POP POP POP POP POP POP POP POP POP POP POP POP JUMP JUMPDEST PUSH1 0x2 SLOAD PUSH1 0x40 MLOAD PUSH4 0xBF3C6BE1 PUSH1 0xE0 SHL DUP2 MSTORE PUSH1 0x4 DUP2 ADD DUP5 SWAP1 MSTORE PUSH1 0x24 DUP2 ADD DUP4 SWAP1 MSTORE PUSH1 0x1 PUSH1 0x1 PUSH1 0xA0 SHL SUB SWAP1 SWAP2 AND SWAP1 PUSH4 0xBF3C6BE1 SWAP1 PUSH1 0x44 ADD JUMPDEST PUSH1 0x0 PUSH1 0x40 MLOAD DUP1 DUP4 SUB DUP2 PUSH1 0x0 DUP8 DUP1 EXTCODESIZE ISZERO DUP1 ISZERO PUSH2 0x5E5 JUMPI PUSH1 0x0 DUP1 REVERT JUMPDEST POP GAS CALL ISZERO DUP1 ISZERO PUSH2 0x5F9 JUMPI RETURNDATASIZE PUSH1 0x0 DUP1 RETURNDATACOPY RETURNDATASIZE PUSH1 0x0 REVERT JUMPDEST POP POP POP POP POP POP JUMP JUMPDEST PUSH1 0x2 SLOAD PUSH1 0x40 MLOAD PUSH4 0xC3B3CF1D PUSH1 0xE0 SHL DUP2 MSTORE PUSH1 0x4 DUP2 ADD DUP5 SWAP1 MSTORE PUSH1 0x24 DUP2 ADD DUP4 SWAP1 MSTORE PUSH1 0x1 PUSH1 0x1 PUSH1 0xA0 SHL SUB SWAP1 SWAP2 AND SWAP1 PUSH4 0xC3B3CF1D SWAP1 PUSH1 0x44 ADD PUSH2 0x5CB JUMP JUMPDEST PUSH1 0x0 DUP3 DUP2 MSTORE PUSH1 0x3 PUSH1 0x20 SWAP1 DUP2 MSTORE PUSH1 0x40 DUP1 DUP4 KECCAK256 DUP5 DUP5 MSTORE SWAP1 SWAP2 MSTORE SWAP1 KECCAK256 SLOAD PUSH1 0xFF AND ISZERO PUSH2 0x673 JUMPI PUSH1 0x40 MLOAD PUSH3 0x560FF9 PUSH1 0xE8 SHL DUP2 MSTORE PUSH1 0x4 ADD PUSH1 0x40 MLOAD DUP1 SWAP2 SUB SWAP1 REVERT JUMPDEST PUSH1 0x2 SLOAD PUSH1 0x40 MLOAD PUSH4 0x1D5B74E9 PUSH1 0xE2 SHL DUP2 MSTORE PUSH1 0x4 DUP2 ADD DUP4 SWAP1 MSTORE PUSH1 0x0 SWAP2 DUP3 SWAP2 DUP3 SWAP2 PUSH1 0x1 PUSH1 0x1 PUSH1 0xA0 SHL SUB AND SWAP1 PUSH4 0x756DD3A4 SWAP1 PUSH1 0x24 ADD PUSH1 0x80 PUSH1 0x40 MLOAD DUP1 DUP4 SUB DUP2 DUP7 GAS STATICCALL ISZERO DUP1 ISZERO PUSH2 0x6C1 JUMPI RETURNDATASIZE PUSH1 0x0 DUP1 RETURNDATACOPY RETURNDATASIZE PUSH1 0x0 REVERT JUMPDEST POP POP POP POP PUSH1 0x40 MLOAD RETURNDATASIZE PUSH1 0x1F NOT PUSH1 0x1F DUP3 ADD AND DUP3 ADD DUP1 PUSH1 0x40 MSTORE POP DUP2 ADD SWAP1 PUSH2 0x6E5 SWAP2 SWAP1 PUSH2 0x9F1 JUMP JUMPDEST SWAP4 POP POP SWAP3 POP SWAP3 POP DUP2 PUSH1 0xFF AND PUSH1 0x1 EQ PUSH2 0x710 JUMPI PUSH1 0x40 MLOAD PUSH4 0xDFE3543 PUSH1 0xE4 SHL DUP2 MSTORE PUSH1 0x4 ADD PUSH1 0x40 MLOAD DUP1 SWAP2 SUB SWAP1 REVERT JUMPDEST DUP1 ISZERO PUSH2 0x72E JUMPI PUSH1 0x40 MLOAD PUSH3 0x560FF9 PUSH1 0xE8 SHL DUP2 MSTORE PUSH1 0x4 ADD PUSH1 0x40 MLOAD DUP1 SWAP2 SUB SWAP1 REVERT JUMPDEST PUSH1 0x0 DUP1 SLOAD PUSH1 0x40 MLOAD PUSH4 0x15A29035 PUSH1 0xE0 SHL DUP2 MSTORE PUSH1 0x4 DUP2 ADD DUP9 SWAP1 MSTORE PUSH1 0x1 PUSH1 0x1 PUSH1 0xA0 SHL SUB SWAP1 SWAP2 AND SWAP1 PUSH4 0x15A29035 SWAP1 PUSH1 0x24 ADD PUSH1 0xA0 PUSH1 0x40 MLOAD DUP1 DUP4 SUB DUP2 DUP7 GAS STATICCALL ISZERO DUP1 ISZERO PUSH2 0x778 JUMPI RETURNDATASIZE PUSH1 0x0 DUP1 RETURNDATACOPY RETURNDATASIZE PUSH1 0x0 REVERT JUMPDEST POP POP POP POP PUSH1 0x40 MLOAD RETURNDATASIZE PUSH1 0x1F NOT PUSH1 0x1F DUP3 ADD AND DUP3 ADD DUP1 PUSH1 0x40 MSTORE POP DUP2 ADD SWAP1 PUSH2 0x79C SWAP2 SWAP1 PUSH2 0x99D JUMP JUMPDEST POP POP PUSH1 0x2 SLOAD PUSH1 0x40 MLOAD PUSH4 0xDEFB2749 PUSH1 0xE0 SHL DUP2 MSTORE PUSH1 0x4 DUP2 ADD DUP11 SWAP1 MSTORE SWAP3 SWAP5 POP PUSH1 0x1 PUSH1 0x1 PUSH1 0xA0 SHL SUB AND SWAP3 POP PUSH4 0xDEFB2749 SWAP2 PUSH1 0x24 ADD SWAP1 POP PUSH1 0x0 PUSH1 0x40 MLOAD DUP1 DUP4 SUB DUP2 PUSH1 0x0 DUP8 DUP1 EXTCODESIZE ISZERO DUP1 ISZERO PUSH2 0x7E8 JUMPI PUSH1 0x0 DUP1 REVERT JUMPDEST POP GAS CALL ISZERO DUP1 ISZERO PUSH2 0x7FC JUMPI RETURNDATASIZE PUSH1 0x0 DUP1 RETURNDATACOPY RETURNDATASIZE PUSH1 0x0 REVERT JUMPDEST POP POP PUSH1 0x1 SLOAD PUSH1 0x40 MLOAD PUSH4 0x82EDD41 PUSH1 0xE2 SHL DUP2 MSTORE PUSH1 0x4 DUP2 ADD DUP11 SWAP1 MSTORE PUSH1 0x1 PUSH1 0x1 PUSH1 0xA0 SHL SUB DUP9 DUP2 AND PUSH1 0x24 DUP4 ADD MSTORE PUSH1 0x44 DUP3 ADD DUP7 SWAP1 MSTORE SWAP1 SWAP2 AND SWAP3 POP PUSH4 0x20BB7504 SWAP2 POP PUSH1 0x64 ADD PUSH1 0x0 PUSH1 0x40 MLOAD DUP1 DUP4 SUB DUP2 PUSH1 0x0 DUP8 DUP1 EXTCODESIZE ISZERO DUP1 ISZERO PUSH2 0x855 JUMPI PUSH1 0x0 DUP1 REVERT JUMPDEST POP GAS CALL ISZERO DUP1 ISZERO PUSH2 0x869 JUMPI RETURNDATASIZE PUSH1 0x0 DUP1 RETURNDATACOPY RETURNDATASIZE PUSH1 0x0 REVERT JUMPDEST POP POP POP PUSH1 0x0 DUP8 DUP2 MSTORE PUSH1 0x3 PUSH1 0x20 SWAP1 DUP2 MSTORE PUSH1 0x40 DUP1 DUP4 KECCAK256 DUP10 DUP5 MSTORE DUP3 MSTORE SWAP2 DUP3 SWAP1 KECCAK256 DUP1 SLOAD PUSH1 0xFF NOT AND PUSH1 0x1 OR SWAP1 SSTORE DUP2 MLOAD PUSH1 0x1 PUSH1 0x1 PUSH1 0xA0 SHL SUB DUP9 AND DUP2 MSTORE SWAP1 DUP2 ADD DUP5 SWAP1 MSTORE DUP8 SWAP3 POP DUP9 SWAP2 PUSH32 0xE7DDF34FEBF549E1B39462318C39380B469024C645400BFEAB0268B9247E655E SWAP2 ADD PUSH1 0x40 MLOAD DUP1 SWAP2 SUB SWAP1 LOG3 POP POP POP POP POP POP JUMP JUMPDEST PUSH1 0x1 PUSH1 0x1 PUSH1 0xA0 SHL SUB DUP2 AND DUP2 EQ PUSH2 0x8F2 JUMPI PUSH1 0x0 DUP1 REVERT JUMPDEST POP JUMP JUMPDEST PUSH1 0x0 DUP1 PUSH1 0x0 DUP1 PUSH1 0x80 DUP6 DUP8 SUB SLT ISZERO PUSH2 0x90B JUMPI PUSH1 0x0 DUP1 REVERT JUMPDEST DUP5 CALLDATALOAD SWAP4 POP PUSH1 0x20 DUP6 ADD CALLDATALOAD SWAP3 POP PUSH1 0x40 DUP6 ADD CALLDATALOAD PUSH2 0x924 DUP2 PUSH2 0x8DD JUMP JUMPDEST SWAP4 SWAP7 SWAP3 SWAP6 POP SWAP3 SWAP4 PUSH1 0x60 ADD CALLDATALOAD SWAP3 POP POP JUMP JUMPDEST PUSH1 0x0 DUP1 PUSH1 0x0 DUP1 PUSH1 0x80 DUP6 DUP8 SUB SLT ISZERO PUSH2 0x94A JUMPI PUSH1 0x0 DUP1 REVERT JUMPDEST POP POP DUP3 CALLDATALOAD SWAP5 PUSH1 0x20 DUP5 ADD CALLDATALOAD SWAP5 POP PUSH1 0x40 DUP5 ADD CALLDATALOAD SWAP4 PUSH1 0x60 ADD CALLDATALOAD SWAP3 POP SWAP1 POP JUMP JUMPDEST PUSH1 0x0 DUP1 PUSH1 0x40 DUP4 DUP6 SUB SLT ISZERO PUSH2 0x979 JUMPI PUSH1 0x0 DUP1 REVERT JUMPDEST POP POP DUP1 CALLDATALOAD SWAP3 PUSH1 0x20 SWAP1 SWAP2 ADD CALLDATALOAD SWAP2 POP JUMP JUMPDEST DUP1 MLOAD DUP1 ISZERO ISZERO DUP2 EQ PUSH2 0x998 JUMPI PUSH1 0x0 DUP1 REVERT JUMPDEST SWAP2 SWAP1 POP JUMP JUMPDEST PUSH1 0x0 DUP1 PUSH1 0x0 DUP1 PUSH1 0x0 PUSH1 0xA0 DUP7 DUP9 SUB SLT ISZERO PUSH2 0x9B5 JUMPI PUSH1 0x0 DUP1 REVERT JUMPDEST DUP6 MLOAD PUSH2 0x9C0 DUP2 PUSH2 0x8DD JUMP JUMPDEST DUP1 SWAP6 POP POP PUSH1 0x20 DUP7 ADD MLOAD SWAP4 POP PUSH1 0x40 DUP7 ADD MLOAD SWAP3 POP PUSH1 0x60 DUP7 ADD MLOAD SWAP2 POP PUSH2 0x9E5 PUSH1 0x80 DUP8 ADD PUSH2 0x988 JUMP JUMPDEST SWAP1 POP SWAP3 SWAP6 POP SWAP3 SWAP6 SWAP1 SWAP4 POP JUMP JUMPDEST PUSH1 0x0 DUP1 PUSH1 0x0 DUP1 PUSH1 0x80 DUP6 DUP8 SUB SLT ISZERO PUSH2 0xA07 JUMPI PUSH1 0x0 DUP1 REVERT JUMPDEST DUP5 MLOAD PUSH2 0xA12 DUP2 PUSH2 0x8DD JUMP JUMPDEST PUSH1 0x20 DUP7 ADD MLOAD SWAP1 SWAP5 POP PUSH1 0xFF DUP2 AND DUP2 EQ PUSH2 0xA29 JUMPI PUSH1 0x0 DUP1 REVERT JUMPDEST PUSH1 0x40 DUP7 ADD MLOAD SWAP1 SWAP4 POP SWAP2 POP PUSH2 0xA3F PUSH1 0x60 DUP7 ADD PUSH2 0x988 JUMP JUMPDEST SWAP1 POP SWAP3 SWAP6 SWAP2 SWAP5 POP SWAP3 POP JUMP INVALID LOG2 PUSH5 0x6970667358 0x22 SLT KECCAK256 0xB0 0x1E 0xC1 0xFC PUSH27 0x80D956161D970051CEF5662FFC1332E5AAE47D0B51D2C501708331 PUSH5 0x736F6C6343 STOP ADDMOD EQ STOP CALLER "},"methodIdentifiers":{"escrowVault()":"8a2ae60b","markRejectedOnly(bytes32,uint256)":"9ce4e508","markVerifiedOnly(bytes32,uint256)":"a556933e","recordSubmission(bytes32,bytes32,address,bytes32)":"83b6db64","releaseReward(bytes32,bytes32)":"af67e9ad","resolveAndSettle(bytes32,bytes32,uint256,uint256)":"967155c1","settled(bytes32,bytes32)":"b94f5351","submissionRegistry()":"3e10ef38","taskRegistry()":"9e498f16"}}}}}