{"contracts/TaskRegistry.sol":{"TaskRegistry":{"abi":[{"inputs":[],"name":"InvalidTask","type":"error"},{"inputs":[],"name":"TaskAlreadyClosed","type":"error"},{"inputs":[],"name":"TaskNotFound","type":"error"},{"inputs":[],"name":"Unauthorized","type":"error"},{"anonymous":false,"inputs":[{"indexed":true,"internalType":"bytes32","name":"taskId","type":"bytes32"}],"name":"TaskClosed","type":"event"},{"anonymous":false,"inputs":[{"indexed":true,"internalType":"bytes32","name":"taskId","type":"bytes32"},{"indexed":true,"internalType":"address","name":"sponsor","type":"address"},{"indexed":false,"internalType":"uint256","name":"rewardAmount","type":"uint256"},{"indexed":false,"internalType":"uint256","name":"thresholdBps","type":"uint256"},{"indexed":false,"internalType":"bytes32","name":"metadataHash","type":"bytes32"}],"name":"TaskCreated","type":"event"},{"inputs":[{"internalType":"bytes32","name":"taskId","type":"bytes32"}],"name":"closeTask","outputs":[],"stateMutability":"nonpayable","type":"function"},{"inputs":[{"internalType":"bytes32","name":"taskId","type":"bytes32"},{"internalType":"uint256","name":"rewardAmount","type":"uint256"},{"internalType":"uint256","name":"thresholdBps","type":"uint256"},{"internalType":"bytes32","name":"metadataHash","type":"bytes32"}],"name":"createTask","outputs":[],"stateMutability":"nonpayable","type":"function"},{"inputs":[{"internalType":"bytes32","name":"taskId","type":"bytes32"}],"name":"getTask","outputs":[{"internalType":"address","name":"sponsor","type":"address"},{"internalType":"uint256","name":"rewardAmount","type":"uint256"},{"internalType":"uint256","name":"thresholdBps","type":"uint256"},{"internalType":"bytes32","name":"metadataHash","type":"bytes32"},{"internalType":"bool","name":"active","type":"bool"}],"stateMutability":"view","type":"function"},{"inputs":[{"internalType":"bytes32","name":"","type":"bytes32"}],"name":"tasks","outputs":[{"internalType":"address","name":"sponsor","type":"address"},{"internalType":"uint256","name":"rewardAmount","type":"uint256"},{"internalType":"uint256","name":"thresholdBps","type":"uint256"},{"internalType":"bytes32","name":"metadataHash","type":"bytes32"},{"internalType":"bool","name":"active","type":"bool"}],"stateMutability":"view","type":"function"}],"evm":{"bytecode":{"linkReferences":{},"object":"608060405234801561001057600080fd5b506103e7806100206000396000f3fe608060405234801561001057600080fd5b506004361061004c5760003560e01c806315a29035146100515780638169f63e1461009c578063e579f500146100b1578063e853202f146100fb575b600080fd5b61006461005f366004610366565b61010e565b604080516001600160a01b03909616865260208601949094529284019190915260608301521515608082015260a00160405180910390f35b6100af6100aa36600461037f565b610181565b005b6100646100bf366004610366565b600060208190529081526040902080546001820154600283015460038401546004909401546001600160a01b0390931693919290919060ff1685565b6100af610109366004610366565b6102a7565b6000818152602081905260408120805482918291829182916001600160a01b031661014c5760405163c325ae3360e01b815260040160405180910390fd5b80546001820154600283015460038401546004909401546001600160a01b039093169a919950975091955060ff169350915050565b82158061018f575061271082115b156101ad57604051630531bbb160e01b815260040160405180910390fd5b6000848152602081905260409020546001600160a01b0316156101e357604051630531bbb160e01b815260040160405180910390fd5b6040805160a081018252338082526020808301878152838501878152606080860188815260016080880181815260008e81528088528a9020985189546001600160a01b0319166001600160a01b03909116178955945190880155915160028701559051600386015590516004909401805460ff19169415159490941790935583518781529081018690529283018490529186917fe3d56d752bd7031a054feb934629e5987081c929e77c548007cb5281f575d364910160405180910390a350505050565b600081815260208190526040902080546001600160a01b03166102dd5760405163c325ae3360e01b815260040160405180910390fd5b80546001600160a01b03163314610306576040516282b42960e81b815260040160405180910390fd5b600481015460ff1661032b57604051634303967760e11b815260040160405180910390fd5b60048101805460ff1916905560405182907f4e35da92e4f3f6a1171ca803360005e851de84a0aac5c0a350288097cd35355790600090a25050565b60006020828403121561037857600080fd5b5035919050565b6000806000806080858703121561039557600080fd5b505082359460208401359450604084013593606001359250905056fea26469706673582212204571835241fdcb304d12e17b64b6173eb23a4f039ecb6da5877da7a971adab0164736f6c63430008140033","opcodes":"PUSH1 0x80 PUSH1 0x40 MSTORE CALLVALUE DUP1 ISZERO PUSH2 0x10 JUMPI PUSH1 0x0 DUP1 REVERT JUMPDEST POP PUSH2 0x3E7 DUP1 PUSH2 0x20 PUSH1 0x0 CODECOPY PUSH1 0x0 RETURN INVALID PUSH1 0x80 PUSH1 0x40 MSTORE CALLVALUE DUP1 ISZERO PUSH2 0x10 JUMPI PUSH1 0x0 DUP1 REVERT JUMPDEST POP PUSH1 0x4 CALLDATASIZE LT PUSH2 0x4C JUMPI PUSH1 0x0 CALLDATALOAD PUSH1 0xE0 SHR DUP1 PUSH4 0x15A29035 EQ PUSH2 0x51 JUMPI DUP1 PUSH4 0x8169F63E EQ PUSH2 0x9C JUMPI DUP1 PUSH4 0xE579F500 EQ PUSH2 0xB1 JUMPI DUP1 PUSH4 0xE853202F EQ PUSH2 0xFB JUMPI JUMPDEST PUSH1 0x0 DUP1 REVERT JUMPDEST PUSH2 0x64 PUSH2 0x5F CALLDATASIZE PUSH1 0x4 PUSH2 0x366 JUMP JUMPDEST PUSH2 0x10E JUMP JUMPDEST PUSH1 0x40 DUP1 MLOAD PUSH1 0x1 PUSH1 0x1 PUSH1 0xA0 SHL SUB SWAP1 SWAP7 AND DUP7 MSTORE PUSH1 0x20 DUP7 ADD SWAP5 SWAP1 SWAP5 MSTORE SWAP3 DUP5 ADD SWAP2 SWAP1 SWAP2 MSTORE PUSH1 0x60 DUP4 ADD MSTORE ISZERO ISZERO PUSH1 0x80 DUP3 ADD MSTORE PUSH1 0xA0 ADD PUSH1 0x40 MLOAD DUP1 SWAP2 SUB SWAP1 RETURN JUMPDEST PUSH2 0xAF PUSH2 0xAA CALLDATASIZE PUSH1 0x4 PUSH2 0x37F JUMP JUMPDEST PUSH2 0x181 JUMP JUMPDEST STOP JUMPDEST PUSH2 0x64 PUSH2 0xBF CALLDATASIZE PUSH1 0x4 PUSH2 0x366 JUMP JUMPDEST PUSH1 0x0 PUSH1 0x20 DUP2 SWAP1 MSTORE SWAP1 DUP2 MSTORE PUSH1 0x40 SWAP1 KECCAK256 DUP1 SLOAD PUSH1 0x1 DUP3 ADD SLOAD PUSH1 0x2 DUP4 ADD SLOAD PUSH1 0x3 DUP5 ADD SLOAD PUSH1 0x4 SWAP1 SWAP5 ADD SLOAD PUSH1 0x1 PUSH1 0x1 PUSH1 0xA0 SHL SUB SWAP1 SWAP4 AND SWAP4 SWAP2 SWAP3 SWAP1 SWAP2 SWAP1 PUSH1 0xFF AND DUP6 JUMP JUMPDEST PUSH2 0xAF PUSH2 0x109 CALLDATASIZE PUSH1 0x4 PUSH2 0x366 JUMP JUMPDEST PUSH2 0x2A7 JUMP JUMPDEST PUSH1 0x0 DUP2 DUP2 MSTORE PUSH1 0x20 DUP2 SWAP1 MSTORE PUSH1 0x40 DUP2 KECCAK256 DUP1 SLOAD DUP3 SWAP2 DUP3 SWAP2 DUP3 SWAP2 DUP3 SWAP2 PUSH1 0x1 PUSH1 0x1 PUSH1 0xA0 SHL SUB AND PUSH2 0x14C JUMPI PUSH1 0x40 MLOAD PUSH4 0xC325AE33 PUSH1 0xE0 SHL DUP2 MSTORE PUSH1 0x4 ADD PUSH1 0x40 MLOAD DUP1 SWAP2 SUB SWAP1 REVERT JUMPDEST DUP1 SLOAD PUSH1 0x1 DUP3 ADD SLOAD PUSH1 0x2 DUP4 ADD SLOAD PUSH1 0x3 DUP5 ADD SLOAD PUSH1 0x4 SWAP1 SWAP5 ADD SLOAD PUSH1 0x1 PUSH1 0x1 PUSH1 0xA0 SHL SUB SWAP1 SWAP4 AND SWAP11 SWAP2 SWAP10 POP SWAP8 POP SWAP2 SWAP6 POP PUSH1 0xFF AND SWAP4 POP SWAP2 POP POP JUMP JUMPDEST DUP3 ISZERO DUP1 PUSH2 0x18F JUMPI POP PUSH2 0x2710 DUP3 GT JUMPDEST ISZERO PUSH2 0x1AD JUMPI PUSH1 0x40 MLOAD PUSH4 0x531BBB1 PUSH1 0xE0 SHL DUP2 MSTORE PUSH1 0x4 ADD PUSH1 0x40 MLOAD DUP1 SWAP2 SUB SWAP1 REVERT JUMPDEST PUSH1 0x0 DUP5 DUP2 MSTORE PUSH1 0x20 DUP2 SWAP1 MSTORE PUSH1 0x40 SWAP1 KECCAK256 SLOAD PUSH1 0x1 PUSH1 0x1 PUSH1 0xA0 SHL SUB AND ISZERO PUSH2 0x1E3 JUMPI PUSH1 0x40 MLOAD PUSH4 0x531BBB1 PUSH1 0xE0 SHL DUP2 MSTORE PUSH1 0x4 ADD PUSH1 0x40 MLOAD DUP1 SWAP2 SUB SWAP1 REVERT JUMPDEST PUSH1 0x40 DUP1 MLOAD PUSH1 0xA0 DUP2 ADD DUP3 MSTORE CALLER DUP1 DUP3 MSTORE PUSH1 0x20 DUP1 DUP4 ADD DUP8 DUP2 MSTORE DUP4 DUP6 ADD DUP8 DUP2 MSTORE PUSH1 0x60 DUP1 DUP7 ADD DUP9 DUP2 MSTORE PUSH1 0x1 PUSH1 0x80 DUP9 ADD DUP2 DUP2 MSTORE PUSH1 0x0 DUP15 DUP2 MSTORE DUP1 DUP9 MSTORE DUP11 SWAP1 KECCAK256 SWAP9 MLOAD DUP10 SLOAD PUSH1 0x1 PUSH1 0x1 PUSH1 0xA0 SHL SUB NOT AND PUSH1 0x1 PUSH1 0x1 PUSH1 0xA0 SHL SUB SWAP1 SWAP2 AND OR DUP10 SSTORE SWAP5 MLOAD SWAP1 DUP9 ADD SSTORE SWAP2 MLOAD PUSH1 0x2 DUP8 ADD SSTORE SWAP1 MLOAD PUSH1 0x3 DUP7 ADD SSTORE SWAP1 MLOAD PUSH1 0x4 SWAP1 SWAP5 ADD DUP1 SLOAD PUSH1 0xFF NOT AND SWAP5 ISZERO ISZERO SWAP5 SWAP1 SWAP5 OR SWAP1 SWAP4 SSTORE DUP4 MLOAD DUP8 DUP2 MSTORE SWAP1 DUP2 ADD DUP7 SWAP1 MSTORE SWAP3 DUP4 ADD DUP5 SWAP1 MSTORE SWAP2 DUP7 SWAP2 PUSH32 0xE3D56D752BD7031A054FEB934629E5987081C929E77C548007CB5281F575D364 SWAP2 ADD PUSH1 0x40 MLOAD DUP1 SWAP2 SUB SWAP1 LOG3 POP POP POP POP JUMP JUMPDEST PUSH1 0x0 DUP2 DUP2 MSTORE PUSH1 0x20 DUP2 SWAP1 MSTORE PUSH1 0x40 SWAP1 KECCAK256 DUP1 SLOAD PUSH1 0x1 PUSH1 0x1 PUSH1 0xA0 SHL SUB AND PUSH2 0x2DD JUMPI PUSH1 0x40 MLOAD PUSH4 0xC325AE33 PUSH1 0xE0 SHL DUP2 MSTORE PUSH1 0x4 ADD PUSH1 0x40 MLOAD DUP1 SWAP2 SUB SWAP1 REVERT JUMPDEST DUP1 SLOAD PUSH1 0x1 PUSH1 0x1 PUSH1 0xA0 SHL SUB AND CALLER EQ PUSH2 0x306 JUMPI PUSH1 0x40 MLOAD PUSH3 0x82B429 PUSH1 0xE8 SHL DUP2 MSTORE PUSH1 0x4 ADD PUSH1 0x40 MLOAD DUP1 SWAP2 SUB SWAP1 REVERT JUMPDEST PUSH1 0x4 DUP2 ADD SLOAD PUSH1 0xFF AND PUSH2 0x32B JUMPI PUSH1 0x40 MLOAD PUSH4 0x43039677 PUSH1 0xE1 SHL DUP2 MSTORE PUSH1 0x4 ADD PUSH1 0x40 MLOAD DUP1 SWAP2 SUB SWAP1 REVERT JUMPDEST PUSH1 0x4 DUP2 ADD DUP1 SLOAD PUSH1 0xFF NOT AND SWAP1 SSTORE PUSH1 0x40 MLOAD DUP3 SWAP1 PUSH32 0x4E35DA92E4F3F6A1171CA803360005E851DE84A0AAC5C0A350288097CD353557 SWAP1 PUSH1 0x0 SWAP1 LOG2 POP POP JUMP JUMPDEST PUSH1 0x0 PUSH1 0x20 DUP3 DUP5 SUB SLT ISZERO PUSH2 0x378 JUMPI PUSH1 0x0 DUP1 REVERT JUMPDEST POP CALLDATALOAD SWAP2 SWAP1 POP JUMP JUMPDEST PUSH1 0x0 DUP1 PUSH1 0x0 DUP1 PUSH1 0x80 DUP6 DUP8 SUB SLT ISZERO PUSH2 0x395 JUMPI PUSH1 0x0 DUP1 REVERT JUMPDEST POP POP DUP3 CALLDATALOAD SWAP5 PUSH1 0x20 DUP5 ADD CALLDATALOAD SWAP5 POP PUSH1 0x40 DUP5 ADD CALLDATALOAD SWAP4 PUSH1 0x60 ADD CALLDATALOAD SWAP3 POP SWAP1 POP JUMP INVALID LOG2 PUSH5 0x6970667358 0x22 SLT KECCAK256 GASLIMIT PUSH18 0x835241FDCB304D12E17B64B6173EB23A4F03 SWAP15 0xCB PUSH14 0xA5877DA7A971ADAB0164736F6C63 NUMBER STOP ADDMOD EQ STOP CALLER "},"methodIdentifiers":{"closeTask(bytes32)":"e853202f","createTask(bytes32,uint256,uint256,bytes32)":"8169f63e","getTask(bytes32)":"15a29035","tasks(bytes32)":"e579f500"}}}}}